{"abi":[{"type":"constructor","inputs":[{"name":"_permit","type":"address","internalType":"contract IPermit2"}],"stateMutability":"nonpayable"},{"type":"function","name":"FULL_PROOF_OFFER_WITNESS_TYPE_STRING_STUB","inputs":[],"outputs":[{"name":"","type":"string","internalType":"string"}],"stateMutability":"view"},{"type":"function","name":"PERMIT2","inputs":[],"outputs":[{"name":"","type":"address","internalType":"contract IPermit2"}],"stateMutability":"view"},{"type":"function","name":"PERMIT_TRANSFER_FROM_TYPEHASH","inputs":[],"outputs":[{"name":"","type":"bytes32","internalType":"bytes32"}],"stateMutability":"view"},{"type":"function","name":"PERMIT_TRANSFER_FROM_WITNESS_TYPEHASH_STUB","inputs":[],"outputs":[{"name":"","type":"string","internalType":"string"}],"stateMutability":"view"},{"type":"function","name":"PROOF_OFFER_WITNESS_TYPE","inputs":[],"outputs":[{"name":"","type":"bytes","internalType":"bytes"}],"stateMutability":"view"},{"type":"function","name":"PROOF_OFFER_WITNESS_TYPE_HASH","inputs":[],"outputs":[{"name":"","type":"bytes32","internalType":"bytes32"}],"stateMutability":"view"},{"type":"function","name":"TOKEN_PERMISSIONS_TYPEHASH","inputs":[],"outputs":[{"name":"","type":"bytes32","internalType":"bytes32"}],"stateMutability":"view"},{"type":"function","name":"activeProofOfferData","inputs":[{"name":"","type":"bytes32","internalType":"bytes32"}],"outputs":[{"name":"provider","type":"address","internalType":"address"},{"name":"requester","type":"address","internalType":"address"},{"name":"resolutionDeadline","type":"uint256","internalType":"uint256"},{"name":"rewardToken","type":"address","internalType":"address"},{"name":"rewardAmount","type":"uint256","internalType":"uint256"},{"name":"stakeToken","type":"address","internalType":"address"},{"name":"stakeAmount","type":"uint256","internalType":"uint256"},{"name":"inputsCommitment","type":"bytes32","internalType":"bytes32"},{"name":"verifierDetails","type":"bytes","internalType":"bytes"}],"stateMutability":"view"},{"type":"function","name":"bid","inputs":[{"name":"offer","type":"tuple","internalType":"struct ProofOffer","components":[{"name":"signer","type":"address","internalType":"address"},{"name":"market","type":"address","internalType":"address"},{"name":"nonce","type":"uint256","internalType":"uint256"},{"name":"rewardToken","type":"address","internalType":"address"},{"name":"rewardAmount","type":"uint256","internalType":"uint256"},{"name":"stakeToken","type":"address","internalType":"address"},{"name":"stakeAmount","type":"uint256","internalType":"uint256"},{"name":"startAuctionTimestamp","type":"uint64","internalType":"uint64"},{"name":"endAuctionTimestamp","type":"uint64","internalType":"uint64"},{"name":"provingTime","type":"uint32","internalType":"uint32"},{"name":"inputsCommitment","type":"bytes32","internalType":"bytes32"},{"name":"extraData","type":"bytes","internalType":"bytes"}]},{"name":"signature","type":"bytes","internalType":"bytes"},{"name":"submittedPartialCommitment","type":"bytes32","internalType":"bytes32"}],"outputs":[{"name":"","type":"address","internalType":"address"},{"name":"","type":"uint256","internalType":"uint256"},{"name":"","type":"uint256","internalType":"uint256"}],"stateMutability":"nonpayable"},{"type":"function","name":"bid","inputs":[{"name":"offer","type":"tuple","internalType":"struct ProofOffer","components":[{"name":"signer","type":"address","internalType":"address"},{"name":"market","type":"address","internalType":"address"},{"name":"nonce","type":"uint256","internalType":"uint256"},{"name":"rewardToken","type":"address","internalType":"address"},{"name":"rewardAmount","type":"uint256","internalType":"uint256"},{"name":"stakeToken","type":"address","internalType":"address"},{"name":"stakeAmount","type":"uint256","internalType":"uint256"},{"name":"startAuctionTimestamp","type":"uint64","internalType":"uint64"},{"name":"endAuctionTimestamp","type":"uint64","internalType":"uint64"},{"name":"provingTime","type":"uint32","internalType":"uint32"},{"name":"inputsCommitment","type":"bytes32","internalType":"bytes32"},{"name":"extraData","type":"bytes","internalType":"bytes"}]},{"name":"signature","type":"bytes","internalType":"bytes"}],"outputs":[{"name":"","type":"address","internalType":"address"},{"name":"","type":"uint256","internalType":"uint256"},{"name":"","type":"uint256","internalType":"uint256"}],"stateMutability":"nonpayable"},{"type":"function","name":"computeOfferId","inputs":[{"name":"offer","type":"tuple","internalType":"struct ProofOffer","components":[{"name":"signer","type":"address","internalType":"address"},{"name":"market","type":"address","internalType":"address"},{"name":"nonce","type":"uint256","internalType":"uint256"},{"name":"rewardToken","type":"address","internalType":"address"},{"name":"rewardAmount","type":"uint256","internalType":"uint256"},{"name":"stakeToken","type":"address","internalType":"address"},{"name":"stakeAmount","type":"uint256","internalType":"uint256"},{"name":"startAuctionTimestamp","type":"uint64","internalType":"uint64"},{"name":"endAuctionTimestamp","type":"uint64","internalType":"uint64"},{"name":"provingTime","type":"uint32","internalType":"uint32"},{"name":"inputsCommitment","type":"bytes32","internalType":"bytes32"},{"name":"extraData","type":"bytes","internalType":"bytes"}]}],"outputs":[{"name":"","type":"bytes32","internalType":"bytes32"}],"stateMutability":"pure"},{"type":"function","name":"computePermitDigest","inputs":[{"name":"permit","type":"tuple","internalType":"struct ISignatureTransfer.PermitTransferFrom","components":[{"name":"permitted","type":"tuple","internalType":"struct ISignatureTransfer.TokenPermissions","components":[{"name":"token","type":"address","internalType":"address"},{"name":"amount","type":"uint256","internalType":"uint256"}]},{"name":"nonce","type":"uint256","internalType":"uint256"},{"name":"deadline","type":"uint256","internalType":"uint256"}]},{"name":"witness","type":"bytes32","internalType":"bytes32"}],"outputs":[{"name":"","type":"bytes32","internalType":"bytes32"}],"stateMutability":"view"},{"type":"function","name":"computeWitnessHash","inputs":[{"name":"proofOfferWitness","type":"tuple","internalType":"struct ProofOffer","components":[{"name":"signer","type":"address","internalType":"address"},{"name":"market","type":"address","internalType":"address"},{"name":"nonce","type":"uint256","internalType":"uint256"},{"name":"rewardToken","type":"address","internalType":"address"},{"name":"rewardAmount","type":"uint256","internalType":"uint256"},{"name":"stakeToken","type":"address","internalType":"address"},{"name":"stakeAmount","type":"uint256","internalType":"uint256"},{"name":"startAuctionTimestamp","type":"uint64","internalType":"uint64"},{"name":"endAuctionTimestamp","type":"uint64","internalType":"uint64"},{"name":"provingTime","type":"uint32","internalType":"uint32"},{"name":"inputsCommitment","type":"bytes32","internalType":"bytes32"},{"name":"extraData","type":"bytes","internalType":"bytes"}]}],"outputs":[{"name":"","type":"bytes32","internalType":"bytes32"}],"stateMutability":"pure"},{"type":"function","name":"resolve","inputs":[{"name":"offerId","type":"bytes32","internalType":"bytes32"},{"name":"opaqueSubmission","type":"bytes","internalType":"bytes"}],"outputs":[{"name":"providerResolved","type":"bool","internalType":"bool"}],"stateMutability":"nonpayable"},{"type":"event","name":"Bid","inputs":[{"name":"signer","type":"address","indexed":true,"internalType":"address"},{"name":"offerId","type":"bytes32","indexed":true,"internalType":"bytes32"},{"name":"rewardToken","type":"address","indexed":false,"internalType":"address"},{"name":"rewardAmount","type":"uint256","indexed":false,"internalType":"uint256"},{"name":"stakeToken","type":"address","indexed":false,"internalType":"address"},{"name":"stakeAmount","type":"uint256","indexed":false,"internalType":"uint256"},{"name":"requester","type":"address","indexed":false,"internalType":"address"}],"anonymous":false},{"type":"event","name":"Resolve","inputs":[{"name":"signer","type":"address","indexed":true,"internalType":"address"},{"name":"offerId","type":"bytes32","indexed":true,"internalType":"bytes32"},{"name":"resolver","type":"address","indexed":false,"internalType":"address"}],"anonymous":false},{"type":"error","name":"AuctionEnded","inputs":[]},{"type":"error","name":"InvalidInputsCommitmentField","inputs":[]},{"type":"error","name":"InvalidOffer","inputs":[]},{"type":"error","name":"InvalidResolver","inputs":[]}],"bytecode":{"object":"0x60a060405234801561001057600080fd5b50604051611e6f380380611e6f83398101604081905261002f91610040565b6001600160a01b0316608052610070565b60006020828403121561005257600080fd5b81516001600160a01b038116811461006957600080fd5b9392505050565b608051611dd66100996000396000818161020a015281816104be015261096d0152611dd66000f3fe608060405234801561001057600080fd5b50600436106100ea5760003560e01c8063622306d21161008c578063902b348211610066578063902b348214610244578063b8aa509314610257578063ca48e9c31461026a578063f2db75871461028d57600080fd5b8063622306d2146101d6578063696c11e5146101de5780636afdd8501461020557600080fd5b806329b1dc04116100c857806329b1dc04146101715780633d77058f146101a657806340d600dd146101bb5780634a8b09a2146101c357600080fd5b806316fabd55146100ef57806325e37d8e1461013657806329824fbf1461015e575b600080fd5b61010c6100fd366004611118565b60008060009450945094915050565b604080516001600160a01b0390941684526020840192909252908201526060015b60405180910390f35b610149610144366004611187565b610295565b60405161012d999897969594939291906111f0565b61010c61016c366004611255565b61037b565b6101987f939c21a48a8dbe3a9a2404a1d46691e4d39f6583d6ec6b35714604c986d8010681565b60405190815260200161012d565b6101ae61082c565b60405161012d91906112bd565b6101ae61084b565b6101986101d1366004611360565b610868565b6101ae610a3a565b6101987f618358ac3db8dc274f0cd8829da7e234bd48cd73c4a740aede1adec9846d06a181565b61022c7f000000000000000000000000000000000000000000000000000000000000000081565b6040516001600160a01b03909116815260200161012d565b6101986102523660046115a5565b610a56565b6101986102653660046115d9565b610b77565b61027d61027836600461160d565b610c2a565b604051901515815260200161012d565b610198610e53565b6000602081905290815260409020805460018201546002830154600384015460048501546005860154600687015460078801546008890180546001600160a01b03998a169a988a169997989688169795969490951694929391926102f89061164b565b80601f01602080910402602001604051908101604052809291908181526020018280546103249061164b565b80156103715780601f1061034657610100808354040283529160200191610371565b820191906000526020600020905b81548152906001019060200180831161035457829003601f168201915b5050505050905089565b60008080610390610100870160e0880161167f565b6001600160401b03164210156103b957604051631771cc0160e11b815260040160405180910390fd5b6103cb6101208701610100880161167f565b6001600160401b03164211156103f457604051631771cc0160e11b815260040160405180910390fd5b60006103ff87610b77565b6000818152602081905260409020600101549091506001600160a01b03161561043b5760405163283a4a6160e21b815260040160405180910390fd5b6000604051806060016040528060405180604001604052808b60a0016020810190610466919061169a565b6001600160a01b031681526020018b60c001358152508152602001896040013581526020018961010001602081019061049f919061167f565b6001600160401b03169052905060006104ba6102528a6116b7565b90507f00000000000000000000000000000000000000000000000000000000000000006001600160a01b031663137c29fe836040518060400160405280306001600160a01b031681526020018d60c001358152508c6000016020810190610521919061169a565b8560405180610160016040528061013c8152602001611b0661013c91398e8e6040518863ffffffff1660e01b815260040161056297969594939291906116ec565b600060405180830381600087803b15801561057c57600080fd5b505af1158015610590573d6000803e3d6000fd5b506105b592506105a991505060808b0160608c0161169a565b33308c60800135610e77565b60006105c96101408b016101208c01611791565b6105d99063ffffffff16426117ac565b604080516101208101909152909150806105f660208d018d61169a565b6001600160a01b03168152602001336001600160a01b031681526020018281526020018b606001602081019061062c919061169a565b6001600160a01b0316815260808c0135602082015260400161065460c08d0160a08e0161169a565b6001600160a01b0316815260c08c013560208201526101408c013560408201526060016106856101608d018d6117cd565b8080601f01602080910402602001604051908101604052809392919081815260200183838082843760009201829052509390945250508681526020818152604091829020845181546001600160a01b03199081166001600160a01b03928316178355928601516001830180548516918316919091179055928501516002820155606085015160038201805484169185169190911790556080850151600482015560a0850151600582018054909316931692909217905560c0830151600682015560e0830151600782015561010083015190915060088201906107679082611864565b5085915061077a905060208c018c61169a565b6001600160a01b03167f2aff112587ec4b80985b86f6cfb58e4fc55cb8b11007cb94aa0c7564f4abe56f6107b460808e0160608f0161169a565b8d608001358e60a00160208101906107cc919061169a565b604080516001600160a01b039485168152602081019390935292168183015260c08f0135606082015233608082015290519081900360a00190a361081660808b0160608c0161169a565b9a60809a909a0135999098509650505050505050565b60405180610160016040528061013c8152602001611b0661013c913981565b60405180610120016040528060fb8152602001611ca660fb913981565b6000806040518060a0016040528060648152602001611c426064913960405180610160016040528061013c8152602001611b0661013c91396040516020016108b1929190611923565b60405160208183030381529060405280519060200120905060007f618358ac3db8dc274f0cd8829da7e234bd48cd73c4a740aede1adec9846d06a18560000151604051602001610902929190611952565b60408051601f1981840301815282825280516020918201208882015189840151928501879052928401819052306060850152608084019290925260a083015260c08201869052915060009060e001604051602081830303815290604052805190602001209050610a2e7f00000000000000000000000000000000000000000000000000000000000000006001600160a01b0316633644e5156040518163ffffffff1660e01b8152600401602060405180830381865afa1580156109c9573d6000803e3d6000fd5b505050506040513d601f19601f820116820180604052508101906109ed9190611979565b8260405161190160f01b6020820152602281018390526042810182905260009060620160405160208183030381529060405280519060200120905092915050565b93505050505b92915050565b6040518060a0016040528060648152602001611c426064913981565b600060405180610120016040528060fb8152602001611ca660fb913980519060200120826000015183602001518460400151856060015186608001518760a001518860c001518960e001518a61010001518b61012001518c61014001518d610160015180519060200120604051602001610b5a9d9c9b9a999897969594939291909c8d526001600160a01b039b8c1660208e0152998b1660408d015260608c019890985295891660808b015260a08a01949094529190961660c088015260e08701959095526001600160401b0394851661010087015290931661012085015263ffffffff929092166101408401526101608301919091526101808201526101a00190565b604051602081830303815290604052805190602001209050919050565b6000610b86602083018361169a565b610b96604084016020850161169a565b6040840135610bab608086016060870161169a565b6080860135610bc060c0880160a0890161169a565b60c0880135610bd66101008a0160e08b0161167f565b610be86101208b016101008c0161167f565b610bfa6101408c016101208d01611791565b6101408c0135610c0e6101608e018e6117cd565b604051602001610b5a9d9c9b9a99989796959493929190611992565b60008381526020818152604080832081516101208101835281546001600160a01b039081168252600183015481169482019490945260028201549281019290925260038101548316606083015260048101546080830152600581015490921660a0820152600682015460c0820152600782015460e0820152600882018054849391610100840191610cba9061164b565b80601f0160208091040260200160405190810160405280929190818152602001828054610ce69061164b565b8015610d335780601f10610d0857610100808354040283529160200191610d33565b820191906000526020600020905b815481529060010190602001808311610d1657829003601f168201915b50505091909252505050606081015160a0820151604083015192935090914211610ddf5782516001600160a01b03163314610d8157604051631b68fd9560e21b815260040160405180910390fd5b610d968360e001518461010001518888610ed5565b93508315610dc757825160c0840151610db29083908390611036565b610dc183828660800151611036565b50610e08565b600083602001519050610db282828660c00151611036565b600083602001519050610df782828660c00151611036565b610e0683828660800151611036565b505b825160405133815288916001600160a01b0316907fe1b9bf84d212627d6f3fc7eec912502723467c985c4d055111dea4d0ca702c729060200160405180910390a35050509392505050565b60405180610120016040528060fb8152602001611ca660fb91398051906020012081565b60405181606052826040528360601b602c526323b872dd60601b600c52602060006064601c6000895af18060016000511416610ec657803d873b151710610ec657637939f4246000526004601cfd5b50600060605260405250505050565b60008084806020019051810190610eec9190611a26565b60808101519091501561101657608081015160608201518491610f0e916117ac565b1115610f2d5760405163ad40bfe560e01b815260040160405180910390fd5b6060810151608082015160009186918690610f4890836117ac565b92610f5593929190611abf565b8080601f016020809104026020016040519081016040528093929190818152602001838380828437600092019190915250505060408401519192505015610ffc57600281604051610fa69190611ae9565b602060405180830381855afa158015610fc3573d6000803e3d6000fd5b5050506040513d601f19601f82011682018060405250810190610fe69190611979565b8714610ff75760009250505061102e565b611014565b8051602082012087146110145760009250505061102e565b505b61102a816000015182602001518686611086565b9150505b949350505050565b816014528060345263a9059cbb60601b60005260206000604460106000875af1806001600051141661107b57803d853b15171061107b576390b8ec186000526004601cfd5b506000603452505050565b6000806040518581528385600483013760206004850182018181600488018560008d5af19998505050505050505050565b600061018082840312156110ca57600080fd5b50919050565b60008083601f8401126110e257600080fd5b5081356001600160401b038111156110f957600080fd5b60208301915083602082850101111561111157600080fd5b9250929050565b6000806000806060858703121561112e57600080fd5b84356001600160401b038082111561114557600080fd5b611151888389016110b7565b9550602087013591508082111561116757600080fd5b50611174878288016110d0565b9598909750949560400135949350505050565b60006020828403121561119957600080fd5b5035919050565b60005b838110156111bb5781810151838201526020016111a3565b50506000910152565b600081518084526111dc8160208601602086016111a0565b601f01601f19169290920160200192915050565b600061012060018060a01b03808d168452808c1660208501528a6040850152808a16606085015288608085015280881660a0850152508560c08401528460e084015280610100840152611245818401856111c4565b9c9b505050505050505050505050565b60008060006040848603121561126a57600080fd5b83356001600160401b038082111561128157600080fd5b61128d878388016110b7565b945060208601359150808211156112a357600080fd5b506112b0868287016110d0565b9497909650939450505050565b6020815260006112d060208301846111c4565b9392505050565b634e487b7160e01b600052604160045260246000fd5b604080519081016001600160401b038111828210171561130f5761130f6112d7565b60405290565b60405161018081016001600160401b038111828210171561130f5761130f6112d7565b6001600160a01b038116811461134d57600080fd5b50565b803561135b81611338565b919050565b60008082840360a081121561137457600080fd5b608081121561138257600080fd5b604051606081018181106001600160401b03821117156113a4576113a46112d7565b60409081528212156113b557600080fd5b6113bd6112ed565b915084356113ca81611338565b808352506020850135602083015281815260408501356020820152606085013560408201528093505050608083013590509250929050565b80356001600160401b038116811461135b57600080fd5b803563ffffffff8116811461135b57600080fd5b600082601f83011261143e57600080fd5b81356001600160401b0380821115611458576114586112d7565b604051601f8301601f19908116603f01168101908282118183101715611480576114806112d7565b8160405283815286602085880101111561149957600080fd5b836020870160208301376000602085830101528094505050505092915050565b600061018082840312156114cc57600080fd5b6114d4611315565b90506114df82611350565b81526114ed60208301611350565b60208201526040820135604082015261150860608301611350565b60608201526080820135608082015261152360a08301611350565b60a082015260c082013560c082015261153e60e08301611402565b60e0820152610100611551818401611402565b90820152610120611563838201611419565b908201526101408281013590820152610160808301356001600160401b0381111561158d57600080fd5b6115998582860161142d565b82840152505092915050565b6000602082840312156115b757600080fd5b81356001600160401b038111156115cd57600080fd5b61102e848285016114b9565b6000602082840312156115eb57600080fd5b81356001600160401b0381111561160157600080fd5b61102e848285016110b7565b60008060006040848603121561162257600080fd5b8335925060208401356001600160401b0381111561163f57600080fd5b6112b0868287016110d0565b600181811c9082168061165f57607f821691505b6020821081036110ca57634e487b7160e01b600052602260045260246000fd5b60006020828403121561169157600080fd5b6112d082611402565b6000602082840312156116ac57600080fd5b81356112d081611338565b6000610a3436836114b9565b81835281816020850137506000828201602090810191909152601f909101601f19169091010190565b600061014061170f838b5180516001600160a01b03168252602090810151910152565b60208a0151604084015260408a01516060840152611743608084018a80516001600160a01b03168252602090810151910152565b6001600160a01b03881660c084015260e08301879052610100830181905261176d818401876111c4565b90508281036101208401526117838185876116c3565b9a9950505050505050505050565b6000602082840312156117a357600080fd5b6112d082611419565b80820180821115610a3457634e487b7160e01b600052601160045260246000fd5b6000808335601e198436030181126117e457600080fd5b8301803591506001600160401b038211156117fe57600080fd5b60200191503681900382131561111157600080fd5b601f82111561185f576000816000526020600020601f850160051c8101602086101561183c5750805b601f850160051c820191505b8181101561185b57828155600101611848565b5050505b505050565b81516001600160401b0381111561187d5761187d6112d7565b6118918161188b845461164b565b84611813565b602080601f8311600181146118c657600084156118ae5750858301515b600019600386901b1c1916600185901b17855561185b565b600085815260208120601f198616915b828110156118f5578886015182559484019460019091019084016118d6565b50858210156119135787850151600019600388901b60f8161c191681555b5050505050600190811b01905550565b600083516119358184602088016111a0565b8351908301906119498183602088016111a0565b01949350505050565b828152606081016112d0602083018480516001600160a01b03168252602090810151910152565b60006020828403121561198b57600080fd5b5051919050565b6001600160a01b038e811682528d81166020830152604082018d90528b81166060830152608082018b9052891660a082015260c081018890526001600160401b0387811660e0830152861661010082015263ffffffff851661012082015261014081018490526101806101608201819052600090611a1390830184866116c3565b9f9e505050505050505050505050505050565b600060a08284031215611a3857600080fd5b60405160a081018181106001600160401b0382111715611a5a57611a5a6112d7565b6040528251611a6881611338565b815260208301516001600160e01b031981168114611a8557600080fd5b602082015260408301518015158114611a9d57600080fd5b6040820152606083810151908201526080928301519281019290925250919050565b60008085851115611acf57600080fd5b83861115611adc57600080fd5b5050820193919092039150565b60008251611afb8184602087016111a0565b919091019291505056fe50726f6f664f66666572207769746e65737329546f6b656e5065726d697373696f6e73286164647265737320746f6b656e2c75696e7432353620616d6f756e742950726f6f664f666665722861646472657373207369676e65722c61646472657373206d61726b65742c75696e74323536206e6f6e63652c6164647265737320726577617264546f6b656e2c75696e7432353620726577617264416d6f756e742c61646472657373207374616b65546f6b656e2c75696e74323536207374616b65416d6f756e742c75696e74363420737461727441756374696f6e54696d657374616d702c75696e74363420656e6441756374696f6e54696d657374616d702c75696e7433322070726f76696e6754696d652c6279746573333220696e70757473436f6d6d69746d656e742c627974657320657874726144617461295065726d69745769746e6573735472616e7366657246726f6d28546f6b656e5065726d697373696f6e73207065726d69747465642c61646472657373207370656e6465722c75696e74323536206e6f6e63652c75696e7432353620646561646c696e652c50726f6f664f666665722861646472657373207369676e65722c61646472657373206d61726b65742c75696e74323536206e6f6e63652c6164647265737320726577617264546f6b656e2c75696e7432353620726577617264416d6f756e742c61646472657373207374616b65546f6b656e2c75696e74323536207374616b65416d6f756e742c75696e74363420737461727441756374696f6e54696d657374616d702c75696e74363420656e6441756374696f6e54696d657374616d702c75696e7433322070726f76696e6754696d652c6279746573333220696e70757473436f6d6d69746d656e742c62797465732065787472614461746129a264697066735822122007c8acec7ee85b798b0a1338c2a98eb8bc29a9ae9720d02feeec63fd023a4f5c64736f6c63430008170033","linkReferences":{}},"methodIdentifiers":{"FULL_PROOF_OFFER_WITNESS_TYPE_STRING_STUB()":"3d77058f","PERMIT2()":"6afdd850","PERMIT_TRANSFER_FROM_TYPEHASH()":"29b1dc04","PERMIT_TRANSFER_FROM_WITNESS_TYPEHASH_STUB()":"622306d2","PROOF_OFFER_WITNESS_TYPE()":"40d600dd","PROOF_OFFER_WITNESS_TYPE_HASH()":"f2db7587","TOKEN_PERMISSIONS_TYPEHASH()":"696c11e5","activeProofOfferData(bytes32)":"25e37d8e","bid((address,address,uint256,address,uint256,address,uint256,uint64,uint64,uint32,bytes32,bytes),bytes)":"29824fbf","bid((address,address,uint256,address,uint256,address,uint256,uint64,uint64,uint32,bytes32,bytes),bytes,bytes32)":"16fabd55","computeOfferId((address,address,uint256,address,uint256,address,uint256,uint64,uint64,uint32,bytes32,bytes))":"b8aa5093","computePermitDigest(((address,uint256),uint256,uint256),bytes32)":"4a8b09a2","computeWitnessHash((address,address,uint256,address,uint256,address,uint256,uint64,uint64,uint32,bytes32,bytes))":"902b3482","resolve(bytes32,bytes)":"ca48e9c3"},"id":41}