{"abi":[{"type":"constructor","inputs":[{"name":"_permit","type":"address","internalType":"contract IPermit2"}],"stateMutability":"nonpayable"},{"type":"function","name":"FULL_PROOF_REQUEST_WITNESS_TYPE_STRING_STUB","inputs":[],"outputs":[{"name":"","type":"string","internalType":"string"}],"stateMutability":"view"},{"type":"function","name":"PERMIT2","inputs":[],"outputs":[{"name":"","type":"address","internalType":"contract IPermit2"}],"stateMutability":"view"},{"type":"function","name":"PERMIT_TRANSFER_FROM_TYPEHASH","inputs":[],"outputs":[{"name":"","type":"bytes32","internalType":"bytes32"}],"stateMutability":"view"},{"type":"function","name":"PERMIT_TRANSFER_FROM_WITNESS_TYPEHASH_STUB","inputs":[],"outputs":[{"name":"","type":"string","internalType":"string"}],"stateMutability":"view"},{"type":"function","name":"PROOF_REQUEST_WITNESS_TYPE","inputs":[],"outputs":[{"name":"","type":"bytes","internalType":"bytes"}],"stateMutability":"view"},{"type":"function","name":"PROOF_REQUEST_WITNESS_TYPE_HASH","inputs":[],"outputs":[{"name":"","type":"bytes32","internalType":"bytes32"}],"stateMutability":"view"},{"type":"function","name":"TOKEN_PERMISSIONS_TYPEHASH","inputs":[],"outputs":[{"name":"","type":"bytes32","internalType":"bytes32"}],"stateMutability":"view"},{"type":"function","name":"activeProofRequestData","inputs":[{"name":"","type":"bytes32","internalType":"bytes32"}],"outputs":[{"name":"requester","type":"address","internalType":"address"},{"name":"provider","type":"address","internalType":"address"},{"name":"resolutionDeadline","type":"uint256","internalType":"uint256"},{"name":"rewardToken","type":"address","internalType":"address"},{"name":"rewardAmount","type":"uint256","internalType":"uint256"},{"name":"providerStake","type":"uint256","internalType":"uint256"},{"name":"inputsCommitment","type":"bytes32","internalType":"bytes32"},{"name":"verifierDetails","type":"bytes","internalType":"bytes"}],"stateMutability":"view"},{"type":"function","name":"bid","inputs":[{"name":"request","type":"tuple","internalType":"struct ProofRequest","components":[{"name":"signer","type":"address","internalType":"address"},{"name":"market","type":"address","internalType":"address"},{"name":"nonce","type":"uint256","internalType":"uint256"},{"name":"rewardToken","type":"address","internalType":"address"},{"name":"maxRewardAmount","type":"uint256","internalType":"uint256"},{"name":"minRewardAmount","type":"uint256","internalType":"uint256"},{"name":"minimumStake","type":"uint128","internalType":"uint128"},{"name":"startAuctionTimestamp","type":"uint64","internalType":"uint64"},{"name":"endAuctionTimestamp","type":"uint64","internalType":"uint64"},{"name":"provingTime","type":"uint32","internalType":"uint32"},{"name":"inputsCommitment","type":"bytes32","internalType":"bytes32"},{"name":"extraData","type":"bytes","internalType":"bytes"}]},{"name":"signature","type":"bytes","internalType":"bytes"}],"outputs":[{"name":"","type":"address","internalType":"address"},{"name":"","type":"uint256","internalType":"uint256"},{"name":"","type":"uint256","internalType":"uint256"}],"stateMutability":"payable"},{"type":"function","name":"computePermitDigest","inputs":[{"name":"permit","type":"tuple","internalType":"struct ISignatureTransfer.PermitTransferFrom","components":[{"name":"permitted","type":"tuple","internalType":"struct ISignatureTransfer.TokenPermissions","components":[{"name":"token","type":"address","internalType":"address"},{"name":"amount","type":"uint256","internalType":"uint256"}]},{"name":"nonce","type":"uint256","internalType":"uint256"},{"name":"deadline","type":"uint256","internalType":"uint256"}]},{"name":"witness","type":"bytes32","internalType":"bytes32"}],"outputs":[{"name":"","type":"bytes32","internalType":"bytes32"}],"stateMutability":"view"},{"type":"function","name":"computeRequestId","inputs":[{"name":"request","type":"tuple","internalType":"struct ProofRequest","components":[{"name":"signer","type":"address","internalType":"address"},{"name":"market","type":"address","internalType":"address"},{"name":"nonce","type":"uint256","internalType":"uint256"},{"name":"rewardToken","type":"address","internalType":"address"},{"name":"maxRewardAmount","type":"uint256","internalType":"uint256"},{"name":"minRewardAmount","type":"uint256","internalType":"uint256"},{"name":"minimumStake","type":"uint128","internalType":"uint128"},{"name":"startAuctionTimestamp","type":"uint64","internalType":"uint64"},{"name":"endAuctionTimestamp","type":"uint64","internalType":"uint64"},{"name":"provingTime","type":"uint32","internalType":"uint32"},{"name":"inputsCommitment","type":"bytes32","internalType":"bytes32"},{"name":"extraData","type":"bytes","internalType":"bytes"}]},{"name":"signature","type":"bytes","internalType":"bytes"}],"outputs":[{"name":"","type":"bytes32","internalType":"bytes32"}],"stateMutability":"pure"},{"type":"function","name":"computeWitnessHash","inputs":[{"name":"proofRequestWitness","type":"tuple","internalType":"struct ProofRequest","components":[{"name":"signer","type":"address","internalType":"address"},{"name":"market","type":"address","internalType":"address"},{"name":"nonce","type":"uint256","internalType":"uint256"},{"name":"rewardToken","type":"address","internalType":"address"},{"name":"maxRewardAmount","type":"uint256","internalType":"uint256"},{"name":"minRewardAmount","type":"uint256","internalType":"uint256"},{"name":"minimumStake","type":"uint128","internalType":"uint128"},{"name":"startAuctionTimestamp","type":"uint64","internalType":"uint64"},{"name":"endAuctionTimestamp","type":"uint64","internalType":"uint64"},{"name":"provingTime","type":"uint32","internalType":"uint32"},{"name":"inputsCommitment","type":"bytes32","internalType":"bytes32"},{"name":"extraData","type":"bytes","internalType":"bytes"}]}],"outputs":[{"name":"","type":"bytes32","internalType":"bytes32"}],"stateMutability":"pure"},{"type":"function","name":"resolve","inputs":[{"name":"requestId","type":"bytes32","internalType":"bytes32"},{"name":"opaqueSubmission","type":"bytes","internalType":"bytes"},{"name":"submittedPartialCommitment","type":"bytes32","internalType":"bytes32"}],"outputs":[{"name":"providerResolved","type":"bool","internalType":"bool"}],"stateMutability":"nonpayable"},{"type":"event","name":"Bid","inputs":[{"name":"signer","type":"address","indexed":true,"internalType":"address"},{"name":"requestId","type":"bytes32","indexed":true,"internalType":"bytes32"},{"name":"rewardToken","type":"address","indexed":false,"internalType":"address"},{"name":"rewardAmount","type":"uint256","indexed":false,"internalType":"uint256"},{"name":"ethStake","type":"uint256","indexed":false,"internalType":"uint256"},{"name":"provider","type":"address","indexed":false,"internalType":"address"}],"anonymous":false},{"type":"event","name":"Resolve","inputs":[{"name":"signer","type":"address","indexed":true,"internalType":"address"},{"name":"requestId","type":"bytes32","indexed":true,"internalType":"bytes32"},{"name":"resolver","type":"address","indexed":false,"internalType":"address"}],"anonymous":false},{"type":"error","name":"AuctionEnded","inputs":[]},{"type":"error","name":"InvalidExpectedPartialCommitmentResultField","inputs":[]},{"type":"error","name":"InvalidInputsCommitmentField","inputs":[]},{"type":"error","name":"InvalidRequest","inputs":[]},{"type":"error","name":"InvalidResolver","inputs":[]},{"type":"error","name":"InvalidTimestamp","inputs":[]}],"bytecode":{"object":"0x60a060405234801561001057600080fd5b5060405161224738038061224783398101604081905261002f91610040565b6001600160a01b0316608052610070565b60006020828403121561005257600080fd5b81516001600160a01b038116811461006957600080fd5b9392505050565b6080516121ae6100996000396000818161022f015281816105390152610b7801526121ae6000f3fe6080604052600436106100c25760003560e01c806368b3567e1161007f57806388e867271161005957806388e86727146102695780638bd91092146102a15780639be138e1146102c1578063e59dbd85146102d657600080fd5b806368b3567e146101b5578063696c11e5146101e95780636afdd8501461021d57600080fd5b806308c7deef146100c757806329b1dc04146100fa57806345be50171461012e5780634a8b09a2146101505780634b4ce59d14610170578063622306d2146101a0575b600080fd5b3480156100d357600080fd5b506100e76100e2366004611739565b6102eb565b6040519081526020015b60405180910390f35b34801561010657600080fd5b506100e77f939c21a48a8dbe3a9a2404a1d46691e4d39f6583d6ec6b35714604c986d8010681565b34801561013a57600080fd5b50610143610415565b6040516100f191906117bd565b34801561015c57600080fd5b506100e761016b3660046117d0565b610434565b34801561017c57600080fd5b5061019061018b3660046118ba565b610606565b60405190151581526020016100f1565b3480156101ac57600080fd5b5061014361089b565b3480156101c157600080fd5b506101d56101d036600461190c565b6108b7565b6040516100f1989796959493929190611925565b3480156101f557600080fd5b506100e77f618358ac3db8dc274f0cd8829da7e234bd48cd73c4a740aede1adec9846d06a181565b34801561022957600080fd5b506102517f000000000000000000000000000000000000000000000000000000000000000081565b6040516001600160a01b0390911681526020016100f1565b61027c610277366004611980565b610994565b604080516001600160a01b0390941684526020840192909252908201526060016100f1565b3480156102ad57600080fd5b506100e76102bc366004611980565b610e53565b3480156102cd57600080fd5b50610143610fca565b3480156102e257600080fd5b506100e7610fe9565b60006040518061012001604052806101008152602001611f36610100913980519060200120826000015183602001518460400151856060015186608001518760a001518860c001518960e001518a61010001518b61012001518c61014001518d6101600151805190602001206040516020016103f89d9c9b9a999897969594939291909c8d526001600160a01b039b8c1660208e0152998b1660408d015260608c01989098529590981660808a015260a089019390935260c08801919091526001600160801b031660e08701526001600160401b039081166101008701529390931661012085015263ffffffff929092166101408401526101608301919091526101808201526101a00190565b604051602081830303815290604052805190602001209050919050565b6040518061012001604052806101008152602001611f36610100913981565b6000806040518060a0016040528060648152602001611ed2606491396040518061018001604052806101438152602001612036610143913960405160200161047d9291906119f1565b60405160208183030381529060405280519060200120905060007f618358ac3db8dc274f0cd8829da7e234bd48cd73c4a740aede1adec9846d06a185600001516040516020016104ce929190611a20565b60408051601f1981840301815282825280516020918201208882015189840151928501879052928401819052306060850152608084019290925260a083015260c08201869052915060009060e0016040516020818303038152906040528051906020012090506105fa7f00000000000000000000000000000000000000000000000000000000000000006001600160a01b0316633644e5156040518163ffffffff1660e01b8152600401602060405180830381865afa158015610595573d6000803e3d6000fd5b505050506040513d601f19601f820116820180604052508101906105b99190611a47565b8260405161190160f01b6020820152602281018390526042810182905260009060620160405160208183030381529060405280519060200120905092915050565b93505050505b92915050565b60008481526020818152604080832081516101008101835281546001600160a01b03908116825260018301548116948201949094526002820154928101929092526003810154909216606082015260048201546080820152600582015460a0820152600682015460c082015260078201805484939160e084019161068990611a60565b80601f01602080910402602001604051908101604052809291908181526020018280546106b590611a60565b80156107025780601f106106d757610100808354040283529160200191610702565b820191906000526020600020905b8154815290600101906020018083116106e557829003601f168201915b5050505050815250509050600081606001519050816040015142116108035781602001516001600160a01b0316336001600160a01b03161461075757604051631b68fd9560e21b815260040160405180910390fd5b61076c8260c001518360e0015188888861100f565b925082156107c857602082015160a08301516040516001600160a01b0383169180156108fc02916000818181858888f193505050501580156107b2573d6000803e3d6000fd5b506107c282828560800151611380565b50610850565b815160a08301516040516001600160a01b0383169180156108fc02916000818181858888f193505050501580156107b2573d6000803e3d6000fd5b815160a08301516040516001600160a01b0383169180156108fc02916000818181858888f1935050505015801561083e573d6000803e3d6000fd5b5061084e82828560800151611380565b505b815160405133815288916001600160a01b0316907fe1b9bf84d212627d6f3fc7eec912502723467c985c4d055111dea4d0ca702c729060200160405180910390a35050949350505050565b6040518060a0016040528060648152602001611ed26064913981565b600060208190529081526040902080546001820154600283015460038401546004850154600586015460068701546007880180546001600160a01b0398891699978916989697969095169593949293919261091190611a60565b80601f016020809104026020016040519081016040528092919081815260200182805461093d90611a60565b801561098a5780601f1061095f5761010080835404028352916020019161098a565b820191906000526020600020905b81548152906001019060200180831161096d57829003601f168201915b5050505050905088565b600080806109a9610100870160e08801611a9a565b6001600160401b03164210156109d2576040516341abc80160e01b815260040160405180910390fd5b6109e461012087016101008801611a9a565b6001600160401b0316421115610a0d576040516341abc80160e01b815260040160405180910390fd5b610a1d60e0870160c08801611ab5565b6001600160801b0316341015610a46576040516341abc80160e01b815260040160405180910390fd5b6000610a53878787610e53565b6000818152602081905260409020549091506001600160a01b031615610a8c5760405163283a4a6160e21b815260040160405180910390fd5b6000604051806060016040528060405180604001604052808b6060016020810190610ab79190611ad0565b6001600160a01b031681526020018b6080013581525081526020018960400135815260200189610100016020810190610af09190611a9a565b6001600160401b0316905290506000610b0b6100e28a611aed565b90506000610b56610b236101008c0160e08d01611a9a565b6001600160401b0316610b3e6101208d016101008e01611a9a565b6001600160401b03168c60a001358d608001356113d0565b6040805180820190915230815260208082018390529192506001600160a01b037f0000000000000000000000000000000000000000000000000000000000000000169163137c29fe918691610bad908f018f611ad0565b86604051806101800160405280610143815260200161203661014391398f8f6040518863ffffffff1660e01b8152600401610bee9796959493929190611b22565b600060405180830381600087803b158015610c0857600080fd5b505af1158015610c1c573d6000803e3d6000fd5b5060009250610c369150506101408c016101208d01611bc7565b610c469063ffffffff1642611bf8565b60408051610100810190915290915080610c6360208e018e611ad0565b6001600160a01b03168152602001336001600160a01b031681526020018281526020018c6060016020810190610c999190611ad0565b6001600160a01b03168152602081018490523460408201526101408d01356060820152608001610ccd6101608e018e611c0b565b8080601f01602080910402602001604051908101604052809392919081815260200183838082843760009201829052509390945250508781526020818152604091829020845181546001600160a01b03199081166001600160a01b03928316178355928601516001830180548516918316919091179055928501516002820155606085015160038201805490931693169290921790556080830151600482015560a0830151600582015560c0830151600682015560e08301519091506007820190610d989082611ca2565b50869150610dab905060208d018d611ad0565b6001600160a01b03167f4a4aa710ae4b99cc28fabea4c4506f5162177250adf2ca0d535d6d77a929c8868d6060016020810190610de89190611ad0565b858f60c0016020810190610dfc9190611ab5565b604080516001600160a01b03909416845260208401929092526001600160801b03169082015233606082015260800160405180910390a3610e4360808c0160608d01611ad0565b9b919a5098509650505050505050565b6000610e656040850160208601611ad0565b6040850135610e7a6080870160608801611ad0565b608087013560a0880135610e9460e08a0160c08b01611ab5565b610ea56101008b0160e08c01611a9a565b610eb76101208c016101008d01611a9a565b610ec96101408d016101208e01611bc7565b6101408d0135610edd6101608f018f611c0b565b604051602001610eee929190611d61565b604051602081830303815290604052805190602001208d8d604051602001610f17929190611d61565b60408051601f1981840301815282825280516020918201206001600160a01b039e8f16918401919091529082019b909b529a90981660608b015260808a019690965260a08901949094526001600160801b0390921660c08801526001600160401b0390811660e08801521661010086015263ffffffff166101208501526101408401526101608301526101808201526101a0016040516020818303038152906040528051906020012090505b9392505050565b6040518061018001604052806101438152602001612036610143913981565b6040518061012001604052806101008152602001611f3661010091398051906020012081565b600080858060200190518101906110269190611da8565b60808101519091501561135f578060a00151156112425760e081015160c0820151859161105291611bf8565b11156110715760405163500ce2ad60e01b815260040160405180910390fd5b60c081015160e08201516000918791879061108c9083611bf8565b9261109993929190611e3f565b8080601f0160208091040260200160405190810160405280939291908181526020018383808284376000920191909152505050604084015191925050156111d9576002826101000151856040516020016110fd929190918252602082015260400190565b60408051601f198184030181529082905261111791611e69565b602060405180830381855afa158015611134573d6000803e3d6000fd5b5050506040513d601f19601f820116820180604052508101906111579190611a47565b60028260405160200161116a9190611e69565b60408051601f198184030181529082905261118491611e69565b602060405180830381855afa1580156111a1573d6000803e3d6000fd5b5050506040513d601f19601f820116820180604052508101906111c49190611a47565b146111d457600092505050611377565b611240565b6101008201516040805160208101929092528101859052606001604051602081830303815290604052805190602001208160405160200161121a9190611e69565b604051602081830303815290604052805190602001201461124057600092505050611377565b505b60808101516060820151859161125791611bf8565b11156112765760405163ad40bfe560e01b815260040160405180910390fd5b60608101516080820151600091879187906112919083611bf8565b9261129e93929190611e3f565b8080601f016020809104026020016040519081016040528093929190818152602001838380828437600092019190915250505060408401519192505015611345576002816040516112ef9190611e69565b602060405180830381855afa15801561130c573d6000803e3d6000fd5b5050506040513d601f19601f8201168201806040525081019061132f9190611a47565b881461134057600092505050611377565b61135d565b80516020820120881461135d57600092505050611377565b505b6113738160000151826020015187876114a2565b9150505b95945050505050565b816014528060345263a9059cbb60601b60005260206000604460106000875af180600160005114166113c557803d853b1517106113c5576390b8ec186000526004601cfd5b506000603452505050565b60008385106113f25760405163b7d0949760e01b815260040160405180910390fd5b844210156114135760405163b7d0949760e01b815260040160405180910390fd5b83421061142157508061149a565b600061142d8642611e85565b9050600061143b8787611e85565b905060008161145284670de0b6b3a7640000611e98565b61145c9190611eaf565b90506000670de0b6b3a76400006114738888611e85565b61147d9084611e98565b6114879190611eaf565b90506114938188611bf8565b9450505050505b949350505050565b6000806040518581528385600483013760206004850182018181600488018560008d5af19998505050505050505050565b634e487b7160e01b600052604160045260246000fd5b60405161018081016001600160401b038111828210171561150c5761150c6114d3565b60405290565b604080519081016001600160401b038111828210171561150c5761150c6114d3565b60405161012081016001600160401b038111828210171561150c5761150c6114d3565b6001600160a01b038116811461156c57600080fd5b50565b803561157a81611557565b919050565b80356001600160801b038116811461157a57600080fd5b80356001600160401b038116811461157a57600080fd5b803563ffffffff8116811461157a57600080fd5b600082601f8301126115d257600080fd5b81356001600160401b03808211156115ec576115ec6114d3565b604051601f8301601f19908116603f01168101908282118183101715611614576116146114d3565b8160405283815286602085880101111561162d57600080fd5b836020870160208301376000602085830101528094505050505092915050565b6000610180828403121561166057600080fd5b6116686114e9565b90506116738261156f565b81526116816020830161156f565b60208201526040820135604082015261169c6060830161156f565b60608201526080820135608082015260a082013560a08201526116c160c0830161157f565b60c08201526116d260e08301611596565b60e08201526101006116e5818401611596565b908201526101206116f78382016115ad565b908201526101408281013590820152610160808301356001600160401b0381111561172157600080fd5b61172d858286016115c1565b82840152505092915050565b60006020828403121561174b57600080fd5b81356001600160401b0381111561176157600080fd5b61149a8482850161164d565b60005b83811015611788578181015183820152602001611770565b50506000910152565b600081518084526117a981602086016020860161176d565b601f01601f19169290920160200192915050565b602081526000610fc36020830184611791565b60008082840360a08112156117e457600080fd5b60808112156117f257600080fd5b604051606081018181106001600160401b0382111715611814576118146114d3565b604090815282121561182557600080fd5b61182d611512565b9150843561183a81611557565b808352506020850135602083015281815260408501356020820152606085013560408201528093505050608083013590509250929050565b60008083601f84011261188457600080fd5b5081356001600160401b0381111561189b57600080fd5b6020830191508360208285010111156118b357600080fd5b9250929050565b600080600080606085870312156118d057600080fd5b8435935060208501356001600160401b038111156118ed57600080fd5b6118f987828801611872565b9598909750949560400135949350505050565b60006020828403121561191e57600080fd5b5035919050565b600061010060018060a01b03808c168452808b1660208501528960408501528089166060850152508660808401528560a08401528460c08401528060e084015261197181840185611791565b9b9a5050505050505050505050565b60008060006040848603121561199557600080fd5b83356001600160401b03808211156119ac57600080fd5b9085019061018082880312156119c157600080fd5b909350602085013590808211156119d757600080fd5b506119e486828701611872565b9497909650939450505050565b60008351611a0381846020880161176d565b835190830190611a1781836020880161176d565b01949350505050565b82815260608101610fc3602083018480516001600160a01b03168252602090810151910152565b600060208284031215611a5957600080fd5b5051919050565b600181811c90821680611a7457607f821691505b602082108103611a9457634e487b7160e01b600052602260045260246000fd5b50919050565b600060208284031215611aac57600080fd5b610fc382611596565b600060208284031215611ac757600080fd5b610fc38261157f565b600060208284031215611ae257600080fd5b8135610fc381611557565b6000610600368361164d565b81835281816020850137506000828201602090810191909152601f909101601f19169091010190565b6000610140611b45838b5180516001600160a01b03168252602090810151910152565b60208a0151604084015260408a01516060840152611b79608084018a80516001600160a01b03168252602090810151910152565b6001600160a01b03881660c084015260e083018790526101008301819052611ba381840187611791565b9050828103610120840152611bb9818587611af9565b9a9950505050505050505050565b600060208284031215611bd957600080fd5b610fc3826115ad565b634e487b7160e01b600052601160045260246000fd5b8082018082111561060057610600611be2565b6000808335601e19843603018112611c2257600080fd5b8301803591506001600160401b03821115611c3c57600080fd5b6020019150368190038213156118b357600080fd5b601f821115611c9d576000816000526020600020601f850160051c81016020861015611c7a5750805b601f850160051c820191505b81811015611c9957828155600101611c86565b5050505b505050565b81516001600160401b03811115611cbb57611cbb6114d3565b611ccf81611cc98454611a60565b84611c51565b602080601f831160018114611d045760008415611cec5750858301515b600019600386901b1c1916600185901b178555611c99565b600085815260208120601f198616915b82811015611d3357888601518255948401946001909101908401611d14565b5085821015611d515787850151600019600388901b60f8161c191681555b5050505050600190811b01905550565b60208152600061149a602083018486611af9565b805161157a81611557565b80516001600160e01b03198116811461157a57600080fd5b8051801515811461157a57600080fd5b60006101208284031215611dbb57600080fd5b611dc3611534565b611dcc83611d75565b8152611dda60208401611d80565b6020820152611deb60408401611d98565b60408201526060830151606082015260808301516080820152611e1060a08401611d98565b60a082015260c083015160c082015260e083015160e08201526101008084015181830152508091505092915050565b60008085851115611e4f57600080fd5b83861115611e5c57600080fd5b5050820193919092039150565b60008251611e7b81846020870161176d565b9190910192915050565b8181038181111561060057610600611be2565b808202811582820484141761060057610600611be2565b600082611ecc57634e487b7160e01b600052601260045260246000fd5b50049056fe5065726d69745769746e6573735472616e7366657246726f6d28546f6b656e5065726d697373696f6e73207065726d69747465642c61646472657373207370656e6465722c75696e74323536206e6f6e63652c75696e7432353620646561646c696e652c50726f6f66526571756573742861646472657373207369676e65722c61646472657373206d61726b65742c75696e74323536206e6f6e63652c6164647265737320746f6b656e2c75696e74323536206d6178526577617264416d6f756e742c75696e74323536206d696e526577617264416d6f756e742c75696e74313238206d696e696d756d5374616b652c75696e74363420737461727441756374696f6e54696d657374616d702c75696e74363420656e6441756374696f6e54696d657374616d702c75696e7433322070726f76696e6754696d652c6279746573333220696e70757473436f6d6d69746d656e742c6279746573206578747261446174612950726f6f6652657175657374207769746e65737329546f6b656e5065726d697373696f6e73286164647265737320746f6b656e2c75696e7432353620616d6f756e742950726f6f66526571756573742861646472657373207369676e65722c61646472657373206d61726b65742c75696e74323536206e6f6e63652c6164647265737320746f6b656e2c75696e74323536206d6178526577617264416d6f756e742c75696e74323536206d696e526577617264416d6f756e742c75696e74313238206d696e696d756d5374616b652c75696e74363420737461727441756374696f6e54696d657374616d702c75696e74363420656e6441756374696f6e54696d657374616d702c75696e7433322070726f76696e6754696d652c6279746573333220696e70757473436f6d6d69746d656e742c62797465732065787472614461746129a2646970667358221220272432853a1f9d9dfb67eef79d20e173ff6dd5dfc083bec9256258c47e20e77964736f6c63430008170033","linkReferences":{}},"methodIdentifiers":{"FULL_PROOF_REQUEST_WITNESS_TYPE_STRING_STUB()":"9be138e1","PERMIT2()":"6afdd850","PERMIT_TRANSFER_FROM_TYPEHASH()":"29b1dc04","PERMIT_TRANSFER_FROM_WITNESS_TYPEHASH_STUB()":"622306d2","PROOF_REQUEST_WITNESS_TYPE()":"45be5017","PROOF_REQUEST_WITNESS_TYPE_HASH()":"e59dbd85","TOKEN_PERMISSIONS_TYPEHASH()":"696c11e5","activeProofRequestData(bytes32)":"68b3567e","bid((address,address,uint256,address,uint256,uint256,uint128,uint64,uint64,uint32,bytes32,bytes),bytes)":"88e86727","computePermitDigest(((address,uint256),uint256,uint256),bytes32)":"4a8b09a2","computeRequestId((address,address,uint256,address,uint256,uint256,uint128,uint64,uint64,uint32,bytes32,bytes),bytes)":"8bd91092","computeWitnessHash((address,address,uint256,address,uint256,uint256,uint128,uint64,uint64,uint32,bytes32,bytes))":"08c7deef","resolve(bytes32,bytes,bytes32)":"4b4ce59d"},"id":40}