{"abi":[{"type":"constructor","inputs":[{"name":"_permit","type":"address","internalType":"contract IPermit2"}],"stateMutability":"nonpayable"},{"type":"function","name":"FULL_PROOF_OFFER_WITNESS_TYPE_STRING_STUB","inputs":[],"outputs":[{"name":"","type":"string","internalType":"string"}],"stateMutability":"view"},{"type":"function","name":"PERMIT2","inputs":[],"outputs":[{"name":"","type":"address","internalType":"contract IPermit2"}],"stateMutability":"view"},{"type":"function","name":"PERMIT_TRANSFER_FROM_TYPEHASH","inputs":[],"outputs":[{"name":"","type":"bytes32","internalType":"bytes32"}],"stateMutability":"view"},{"type":"function","name":"PERMIT_TRANSFER_FROM_WITNESS_TYPEHASH_STUB","inputs":[],"outputs":[{"name":"","type":"string","internalType":"string"}],"stateMutability":"view"},{"type":"function","name":"PROOF_OFFER_WITNESS_TYPE","inputs":[],"outputs":[{"name":"","type":"bytes","internalType":"bytes"}],"stateMutability":"view"},{"type":"function","name":"PROOF_OFFER_WITNESS_TYPE_HASH","inputs":[],"outputs":[{"name":"","type":"bytes32","internalType":"bytes32"}],"stateMutability":"view"},{"type":"function","name":"TOKEN_PERMISSIONS_TYPEHASH","inputs":[],"outputs":[{"name":"","type":"bytes32","internalType":"bytes32"}],"stateMutability":"view"},{"type":"function","name":"activeProofOfferData","inputs":[{"name":"","type":"bytes32","internalType":"bytes32"}],"outputs":[{"name":"provider","type":"address","internalType":"address"},{"name":"requester","type":"address","internalType":"address"},{"name":"resolutionDeadline","type":"uint256","internalType":"uint256"},{"name":"rewardToken","type":"address","internalType":"address"},{"name":"rewardAmount","type":"uint256","internalType":"uint256"},{"name":"stakeToken","type":"address","internalType":"address"},{"name":"stakeAmount","type":"uint256","internalType":"uint256"},{"name":"inputsCommitment","type":"bytes32","internalType":"bytes32"},{"name":"verifierDetails","type":"bytes","internalType":"bytes"}],"stateMutability":"view"},{"type":"function","name":"bid","inputs":[{"name":"offer","type":"tuple","internalType":"struct ProofOffer","components":[{"name":"signer","type":"address","internalType":"address"},{"name":"market","type":"address","internalType":"address"},{"name":"nonce","type":"uint256","internalType":"uint256"},{"name":"rewardToken","type":"address","internalType":"address"},{"name":"rewardAmount","type":"uint256","internalType":"uint256"},{"name":"stakeToken","type":"address","internalType":"address"},{"name":"stakeAmount","type":"uint256","internalType":"uint256"},{"name":"startAuctionTimestamp","type":"uint64","internalType":"uint64"},{"name":"endAuctionTimestamp","type":"uint64","internalType":"uint64"},{"name":"provingTime","type":"uint32","internalType":"uint32"},{"name":"inputsCommitment","type":"bytes32","internalType":"bytes32"},{"name":"extraData","type":"bytes","internalType":"bytes"}]},{"name":"signature","type":"bytes","internalType":"bytes"}],"outputs":[{"name":"","type":"address","internalType":"address"},{"name":"","type":"uint256","internalType":"uint256"},{"name":"","type":"uint256","internalType":"uint256"}],"stateMutability":"nonpayable"},{"type":"function","name":"computeOfferId","inputs":[{"name":"offer","type":"tuple","internalType":"struct ProofOffer","components":[{"name":"signer","type":"address","internalType":"address"},{"name":"market","type":"address","internalType":"address"},{"name":"nonce","type":"uint256","internalType":"uint256"},{"name":"rewardToken","type":"address","internalType":"address"},{"name":"rewardAmount","type":"uint256","internalType":"uint256"},{"name":"stakeToken","type":"address","internalType":"address"},{"name":"stakeAmount","type":"uint256","internalType":"uint256"},{"name":"startAuctionTimestamp","type":"uint64","internalType":"uint64"},{"name":"endAuctionTimestamp","type":"uint64","internalType":"uint64"},{"name":"provingTime","type":"uint32","internalType":"uint32"},{"name":"inputsCommitment","type":"bytes32","internalType":"bytes32"},{"name":"extraData","type":"bytes","internalType":"bytes"}]}],"outputs":[{"name":"","type":"bytes32","internalType":"bytes32"}],"stateMutability":"pure"},{"type":"function","name":"computePermitDigest","inputs":[{"name":"permit","type":"tuple","internalType":"struct ISignatureTransfer.PermitTransferFrom","components":[{"name":"permitted","type":"tuple","internalType":"struct ISignatureTransfer.TokenPermissions","components":[{"name":"token","type":"address","internalType":"address"},{"name":"amount","type":"uint256","internalType":"uint256"}]},{"name":"nonce","type":"uint256","internalType":"uint256"},{"name":"deadline","type":"uint256","internalType":"uint256"}]},{"name":"witness","type":"bytes32","internalType":"bytes32"}],"outputs":[{"name":"","type":"bytes32","internalType":"bytes32"}],"stateMutability":"view"},{"type":"function","name":"computeWitnessHash","inputs":[{"name":"proofOfferWitness","type":"tuple","internalType":"struct ProofOffer","components":[{"name":"signer","type":"address","internalType":"address"},{"name":"market","type":"address","internalType":"address"},{"name":"nonce","type":"uint256","internalType":"uint256"},{"name":"rewardToken","type":"address","internalType":"address"},{"name":"rewardAmount","type":"uint256","internalType":"uint256"},{"name":"stakeToken","type":"address","internalType":"address"},{"name":"stakeAmount","type":"uint256","internalType":"uint256"},{"name":"startAuctionTimestamp","type":"uint64","internalType":"uint64"},{"name":"endAuctionTimestamp","type":"uint64","internalType":"uint64"},{"name":"provingTime","type":"uint32","internalType":"uint32"},{"name":"inputsCommitment","type":"bytes32","internalType":"bytes32"},{"name":"extraData","type":"bytes","internalType":"bytes"}]}],"outputs":[{"name":"","type":"bytes32","internalType":"bytes32"}],"stateMutability":"pure"},{"type":"function","name":"resolve","inputs":[{"name":"offerId","type":"bytes32","internalType":"bytes32"},{"name":"opaqueSubmission","type":"bytes","internalType":"bytes"}],"outputs":[{"name":"providerResolved","type":"bool","internalType":"bool"}],"stateMutability":"nonpayable"},{"type":"event","name":"Bid","inputs":[{"name":"signer","type":"address","indexed":true,"internalType":"address"},{"name":"offerId","type":"bytes32","indexed":true,"internalType":"bytes32"},{"name":"rewardToken","type":"address","indexed":false,"internalType":"address"},{"name":"rewardAmount","type":"uint256","indexed":false,"internalType":"uint256"},{"name":"stakeToken","type":"address","indexed":false,"internalType":"address"},{"name":"stakeAmount","type":"uint256","indexed":false,"internalType":"uint256"},{"name":"requester","type":"address","indexed":false,"internalType":"address"}],"anonymous":false},{"type":"event","name":"Resolve","inputs":[{"name":"signer","type":"address","indexed":true,"internalType":"address"},{"name":"offerId","type":"bytes32","indexed":true,"internalType":"bytes32"},{"name":"resolver","type":"address","indexed":false,"internalType":"address"}],"anonymous":false},{"type":"error","name":"AuctionEnded","inputs":[]},{"type":"error","name":"InvalidInputsCommitmentField","inputs":[]},{"type":"error","name":"InvalidOffer","inputs":[]},{"type":"error","name":"InvalidResolver","inputs":[]}],"bytecode":{"object":"0x60a060405234801561001057600080fd5b50604051611dcc380380611dcc83398101604081905261002f91610040565b6001600160a01b0316608052610070565b60006020828403121561005257600080fd5b81516001600160a01b038116811461006957600080fd5b9392505050565b608051611d33610099600039600081816101d60152818161048a01526109390152611d336000f3fe608060405234801561001057600080fd5b50600436106100cf5760003560e01c8063622306d21161008c578063902b348211610066578063902b348214610210578063b8aa509314610223578063ca48e9c314610236578063f2db75871461025957600080fd5b8063622306d2146101a2578063696c11e5146101aa5780636afdd850146101d157600080fd5b806325e37d8e146100d457806329824fbf1461010557806329b1dc041461013d5780633d77058f1461017257806340d600dd146101875780634a8b09a21461018f575b600080fd5b6100e76100e2366004611083565b610261565b6040516100fc999897969594939291906110ec565b60405180910390f35b6101186101133660046111b2565b610347565b604080516001600160a01b0390941684526020840192909252908201526060016100fc565b6101647f939c21a48a8dbe3a9a2404a1d46691e4d39f6583d6ec6b35714604c986d8010681565b6040519081526020016100fc565b61017a6107f8565b6040516100fc919061121a565b61017a610817565b61016461019d3660046112bd565b610834565b61017a610a06565b6101647f618358ac3db8dc274f0cd8829da7e234bd48cd73c4a740aede1adec9846d06a181565b6101f87f000000000000000000000000000000000000000000000000000000000000000081565b6040516001600160a01b0390911681526020016100fc565b61016461021e366004611502565b610a22565b610164610231366004611536565b610b43565b61024961024436600461156a565b610bf6565b60405190151581526020016100fc565b610164610e1f565b6000602081905290815260409020805460018201546002830154600384015460048501546005860154600687015460078801546008890180546001600160a01b03998a169a988a169997989688169795969490951694929391926102c4906115a8565b80601f01602080910402602001604051908101604052809291908181526020018280546102f0906115a8565b801561033d5780601f106103125761010080835404028352916020019161033d565b820191906000526020600020905b81548152906001019060200180831161032057829003601f168201915b5050505050905089565b6000808061035c610100870160e088016115dc565b6001600160401b031642101561038557604051631771cc0160e11b815260040160405180910390fd5b610397610120870161010088016115dc565b6001600160401b03164211156103c057604051631771cc0160e11b815260040160405180910390fd5b60006103cb87610b43565b6000818152602081905260409020600101549091506001600160a01b0316156104075760405163283a4a6160e21b815260040160405180910390fd5b6000604051806060016040528060405180604001604052808b60a001602081019061043291906115f7565b6001600160a01b031681526020018b60c001358152508152602001896040013581526020018961010001602081019061046b91906115dc565b6001600160401b031690529050600061048661021e8a611614565b90507f00000000000000000000000000000000000000000000000000000000000000006001600160a01b031663137c29fe836040518060400160405280306001600160a01b031681526020018d60c001358152508c60000160208101906104ed91906115f7565b8560405180610160016040528061013c8152602001611a6361013c91398e8e6040518863ffffffff1660e01b815260040161052e9796959493929190611649565b600060405180830381600087803b15801561054857600080fd5b505af115801561055c573d6000803e3d6000fd5b50610581925061057591505060808b0160608c016115f7565b33308c60800135610e43565b60006105956101408b016101208c016116ee565b6105a59063ffffffff1642611709565b604080516101208101909152909150806105c260208d018d6115f7565b6001600160a01b03168152602001336001600160a01b031681526020018281526020018b60600160208101906105f891906115f7565b6001600160a01b0316815260808c0135602082015260400161062060c08d0160a08e016115f7565b6001600160a01b0316815260c08c013560208201526101408c013560408201526060016106516101608d018d61172a565b8080601f01602080910402602001604051908101604052809392919081815260200183838082843760009201829052509390945250508681526020818152604091829020845181546001600160a01b03199081166001600160a01b03928316178355928601516001830180548516918316919091179055928501516002820155606085015160038201805484169185169190911790556080850151600482015560a0850151600582018054909316931692909217905560c0830151600682015560e08301516007820155610100830151909150600882019061073390826117c1565b50859150610746905060208c018c6115f7565b6001600160a01b03167f2aff112587ec4b80985b86f6cfb58e4fc55cb8b11007cb94aa0c7564f4abe56f61078060808e0160608f016115f7565b8d608001358e60a001602081019061079891906115f7565b604080516001600160a01b039485168152602081019390935292168183015260c08f0135606082015233608082015290519081900360a00190a36107e260808b0160608c016115f7565b9a60809a909a0135999098509650505050505050565b60405180610160016040528061013c8152602001611a6361013c913981565b60405180610120016040528060fb8152602001611c0360fb913981565b6000806040518060a0016040528060648152602001611b9f6064913960405180610160016040528061013c8152602001611a6361013c913960405160200161087d929190611880565b60405160208183030381529060405280519060200120905060007f618358ac3db8dc274f0cd8829da7e234bd48cd73c4a740aede1adec9846d06a185600001516040516020016108ce9291906118af565b60408051601f1981840301815282825280516020918201208882015189840151928501879052928401819052306060850152608084019290925260a083015260c08201869052915060009060e0016040516020818303038152906040528051906020012090506109fa7f00000000000000000000000000000000000000000000000000000000000000006001600160a01b0316633644e5156040518163ffffffff1660e01b8152600401602060405180830381865afa158015610995573d6000803e3d6000fd5b505050506040513d601f19601f820116820180604052508101906109b991906118d6565b8260405161190160f01b6020820152602281018390526042810182905260009060620160405160208183030381529060405280519060200120905092915050565b93505050505b92915050565b6040518060a0016040528060648152602001611b9f6064913981565b600060405180610120016040528060fb8152602001611c0360fb913980519060200120826000015183602001518460400151856060015186608001518760a001518860c001518960e001518a61010001518b61012001518c61014001518d610160015180519060200120604051602001610b269d9c9b9a999897969594939291909c8d526001600160a01b039b8c1660208e0152998b1660408d015260608c019890985295891660808b015260a08a01949094529190961660c088015260e08701959095526001600160401b0394851661010087015290931661012085015263ffffffff929092166101408401526101608301919091526101808201526101a00190565b604051602081830303815290604052805190602001209050919050565b6000610b5260208301836115f7565b610b6260408401602085016115f7565b6040840135610b7760808601606087016115f7565b6080860135610b8c60c0880160a089016115f7565b60c0880135610ba26101008a0160e08b016115dc565b610bb46101208b016101008c016115dc565b610bc66101408c016101208d016116ee565b6101408c0135610bda6101608e018e61172a565b604051602001610b269d9c9b9a999897969594939291906118ef565b60008381526020818152604080832081516101208101835281546001600160a01b039081168252600183015481169482019490945260028201549281019290925260038101548316606083015260048101546080830152600581015490921660a0820152600682015460c0820152600782015460e0820152600882018054849391610100840191610c86906115a8565b80601f0160208091040260200160405190810160405280929190818152602001828054610cb2906115a8565b8015610cff5780601f10610cd457610100808354040283529160200191610cff565b820191906000526020600020905b815481529060010190602001808311610ce257829003601f168201915b50505091909252505050606081015160a0820151604083015192935090914211610dab5782516001600160a01b03163314610d4d57604051631b68fd9560e21b815260040160405180910390fd5b610d628360e001518461010001518888610ea1565b93508315610d9357825160c0840151610d7e9083908390611002565b610d8d83828660800151611002565b50610dd4565b600083602001519050610d7e82828660c00151611002565b600083602001519050610dc382828660c00151611002565b610dd283828660800151611002565b505b825160405133815288916001600160a01b0316907fe1b9bf84d212627d6f3fc7eec912502723467c985c4d055111dea4d0ca702c729060200160405180910390a35050509392505050565b60405180610120016040528060fb8152602001611c0360fb91398051906020012081565b60405181606052826040528360601b602c526323b872dd60601b600c52602060006064601c6000895af18060016000511416610e9257803d873b151710610e9257637939f4246000526004601cfd5b50600060605260405250505050565b60008084806020019051810190610eb89190611983565b608081015190915015610fe257608081015160608201518491610eda91611709565b1115610ef95760405163ad40bfe560e01b815260040160405180910390fd5b6060810151608082015160009186918690610f149083611709565b92610f2193929190611a1c565b8080601f016020809104026020016040519081016040528093929190818152602001838380828437600092019190915250505060408401519192505015610fc857600281604051610f729190611a46565b602060405180830381855afa158015610f8f573d6000803e3d6000fd5b5050506040513d601f19601f82011682018060405250810190610fb291906118d6565b8714610fc357600092505050610ffa565b610fe0565b805160208201208714610fe057600092505050610ffa565b505b610ff6816000015182602001518686611052565b9150505b949350505050565b816014528060345263a9059cbb60601b60005260206000604460106000875af1806001600051141661104757803d853b151710611047576390b8ec186000526004601cfd5b506000603452505050565b6000806040518581528385600483013760206004850182018181600488018560008d5af19998505050505050505050565b60006020828403121561109557600080fd5b5035919050565b60005b838110156110b757818101518382015260200161109f565b50506000910152565b600081518084526110d881602086016020860161109c565b601f01601f19169290920160200192915050565b600061012060018060a01b03808d168452808c1660208501528a6040850152808a16606085015288608085015280881660a0850152508560c08401528460e084015280610100840152611141818401856110c0565b9c9b505050505050505050505050565b6000610180828403121561116457600080fd5b50919050565b60008083601f84011261117c57600080fd5b5081356001600160401b0381111561119357600080fd5b6020830191508360208285010111156111ab57600080fd5b9250929050565b6000806000604084860312156111c757600080fd5b83356001600160401b03808211156111de57600080fd5b6111ea87838801611151565b9450602086013591508082111561120057600080fd5b5061120d8682870161116a565b9497909650939450505050565b60208152600061122d60208301846110c0565b9392505050565b634e487b7160e01b600052604160045260246000fd5b604080519081016001600160401b038111828210171561126c5761126c611234565b60405290565b60405161018081016001600160401b038111828210171561126c5761126c611234565b6001600160a01b03811681146112aa57600080fd5b50565b80356112b881611295565b919050565b60008082840360a08112156112d157600080fd5b60808112156112df57600080fd5b604051606081018181106001600160401b038211171561130157611301611234565b604090815282121561131257600080fd5b61131a61124a565b9150843561132781611295565b808352506020850135602083015281815260408501356020820152606085013560408201528093505050608083013590509250929050565b80356001600160401b03811681146112b857600080fd5b803563ffffffff811681146112b857600080fd5b600082601f83011261139b57600080fd5b81356001600160401b03808211156113b5576113b5611234565b604051601f8301601f19908116603f011681019082821181831017156113dd576113dd611234565b816040528381528660208588010111156113f657600080fd5b836020870160208301376000602085830101528094505050505092915050565b6000610180828403121561142957600080fd5b611431611272565b905061143c826112ad565b815261144a602083016112ad565b602082015260408201356040820152611465606083016112ad565b60608201526080820135608082015261148060a083016112ad565b60a082015260c082013560c082015261149b60e0830161135f565b60e08201526101006114ae81840161135f565b908201526101206114c0838201611376565b908201526101408281013590820152610160808301356001600160401b038111156114ea57600080fd5b6114f68582860161138a565b82840152505092915050565b60006020828403121561151457600080fd5b81356001600160401b0381111561152a57600080fd5b610ffa84828501611416565b60006020828403121561154857600080fd5b81356001600160401b0381111561155e57600080fd5b610ffa84828501611151565b60008060006040848603121561157f57600080fd5b8335925060208401356001600160401b0381111561159c57600080fd5b61120d8682870161116a565b600181811c908216806115bc57607f821691505b60208210810361116457634e487b7160e01b600052602260045260246000fd5b6000602082840312156115ee57600080fd5b61122d8261135f565b60006020828403121561160957600080fd5b813561122d81611295565b6000610a003683611416565b81835281816020850137506000828201602090810191909152601f909101601f19169091010190565b600061014061166c838b5180516001600160a01b03168252602090810151910152565b60208a0151604084015260408a015160608401526116a0608084018a80516001600160a01b03168252602090810151910152565b6001600160a01b03881660c084015260e0830187905261010083018190526116ca818401876110c0565b90508281036101208401526116e0818587611620565b9a9950505050505050505050565b60006020828403121561170057600080fd5b61122d82611376565b80820180821115610a0057634e487b7160e01b600052601160045260246000fd5b6000808335601e1984360301811261174157600080fd5b8301803591506001600160401b0382111561175b57600080fd5b6020019150368190038213156111ab57600080fd5b601f8211156117bc576000816000526020600020601f850160051c810160208610156117995750805b601f850160051c820191505b818110156117b8578281556001016117a5565b5050505b505050565b81516001600160401b038111156117da576117da611234565b6117ee816117e884546115a8565b84611770565b602080601f831160018114611823576000841561180b5750858301515b600019600386901b1c1916600185901b1785556117b8565b600085815260208120601f198616915b8281101561185257888601518255948401946001909101908401611833565b50858210156118705787850151600019600388901b60f8161c191681555b5050505050600190811b01905550565b6000835161189281846020880161109c565b8351908301906118a681836020880161109c565b01949350505050565b8281526060810161122d602083018480516001600160a01b03168252602090810151910152565b6000602082840312156118e857600080fd5b5051919050565b6001600160a01b038e811682528d81166020830152604082018d90528b81166060830152608082018b9052891660a082015260c081018890526001600160401b0387811660e0830152861661010082015263ffffffff8516610120820152610140810184905261018061016082018190526000906119709083018486611620565b9f9e505050505050505050505050505050565b600060a0828403121561199557600080fd5b60405160a081018181106001600160401b03821117156119b7576119b7611234565b60405282516119c581611295565b815260208301516001600160e01b0319811681146119e257600080fd5b6020820152604083015180151581146119fa57600080fd5b6040820152606083810151908201526080928301519281019290925250919050565b60008085851115611a2c57600080fd5b83861115611a3957600080fd5b5050820193919092039150565b60008251611a5881846020870161109c565b919091019291505056fe50726f6f664f66666572207769746e65737329546f6b656e5065726d697373696f6e73286164647265737320746f6b656e2c75696e7432353620616d6f756e742950726f6f664f666665722861646472657373207369676e65722c61646472657373206d61726b65742c75696e74323536206e6f6e63652c6164647265737320726577617264546f6b656e2c75696e7432353620726577617264416d6f756e742c61646472657373207374616b65546f6b656e2c75696e74323536207374616b65416d6f756e742c75696e74363420737461727441756374696f6e54696d657374616d702c75696e74363420656e6441756374696f6e54696d657374616d702c75696e7433322070726f76696e6754696d652c6279746573333220696e70757473436f6d6d69746d656e742c627974657320657874726144617461295065726d69745769746e6573735472616e7366657246726f6d28546f6b656e5065726d697373696f6e73207065726d69747465642c61646472657373207370656e6465722c75696e74323536206e6f6e63652c75696e7432353620646561646c696e652c50726f6f664f666665722861646472657373207369676e65722c61646472657373206d61726b65742c75696e74323536206e6f6e63652c6164647265737320726577617264546f6b656e2c75696e7432353620726577617264416d6f756e742c61646472657373207374616b65546f6b656e2c75696e74323536207374616b65416d6f756e742c75696e74363420737461727441756374696f6e54696d657374616d702c75696e74363420656e6441756374696f6e54696d657374616d702c75696e7433322070726f76696e6754696d652c6279746573333220696e70757473436f6d6d69746d656e742c62797465732065787472614461746129a2646970667358221220530842973d802d692832f6cc4e78ae42b4861a8a3cb93ec2f1bd9b46f211b27364736f6c63430008170033","linkReferences":{}},"methodIdentifiers":{"FULL_PROOF_OFFER_WITNESS_TYPE_STRING_STUB()":"3d77058f","PERMIT2()":"6afdd850","PERMIT_TRANSFER_FROM_TYPEHASH()":"29b1dc04","PERMIT_TRANSFER_FROM_WITNESS_TYPEHASH_STUB()":"622306d2","PROOF_OFFER_WITNESS_TYPE()":"40d600dd","PROOF_OFFER_WITNESS_TYPE_HASH()":"f2db7587","TOKEN_PERMISSIONS_TYPEHASH()":"696c11e5","activeProofOfferData(bytes32)":"25e37d8e","bid((address,address,uint256,address,uint256,address,uint256,uint64,uint64,uint32,bytes32,bytes),bytes)":"29824fbf","computeOfferId((address,address,uint256,address,uint256,address,uint256,uint64,uint64,uint32,bytes32,bytes))":"b8aa5093","computePermitDigest(((address,uint256),uint256,uint256),bytes32)":"4a8b09a2","computeWitnessHash((address,address,uint256,address,uint256,address,uint256,uint64,uint64,uint32,bytes32,bytes))":"902b3482","resolve(bytes32,bytes)":"ca48e9c3"},"id":41}