{"abi":[{"type":"constructor","inputs":[{"name":"_permit","type":"address","internalType":"contract IPermit2"}],"stateMutability":"nonpayable"},{"type":"function","name":"FULL_PROOF_REQUEST_WITNESS_TYPE_STRING_STUB","inputs":[],"outputs":[{"name":"","type":"string","internalType":"string"}],"stateMutability":"view"},{"type":"function","name":"PERMIT2","inputs":[],"outputs":[{"name":"","type":"address","internalType":"contract IPermit2"}],"stateMutability":"view"},{"type":"function","name":"PERMIT_TRANSFER_FROM_TYPEHASH","inputs":[],"outputs":[{"name":"","type":"bytes32","internalType":"bytes32"}],"stateMutability":"view"},{"type":"function","name":"PERMIT_TRANSFER_FROM_WITNESS_TYPEHASH_STUB","inputs":[],"outputs":[{"name":"","type":"string","internalType":"string"}],"stateMutability":"view"},{"type":"function","name":"PROOF_REQUEST_WITNESS_TYPE","inputs":[],"outputs":[{"name":"","type":"bytes","internalType":"bytes"}],"stateMutability":"view"},{"type":"function","name":"PROOF_REQUEST_WITNESS_TYPE_HASH","inputs":[],"outputs":[{"name":"","type":"bytes32","internalType":"bytes32"}],"stateMutability":"view"},{"type":"function","name":"TOKEN_PERMISSIONS_TYPEHASH","inputs":[],"outputs":[{"name":"","type":"bytes32","internalType":"bytes32"}],"stateMutability":"view"},{"type":"function","name":"activeProofRequestData","inputs":[{"name":"","type":"bytes32","internalType":"bytes32"}],"outputs":[{"name":"requester","type":"address","internalType":"address"},{"name":"provider","type":"address","internalType":"address"},{"name":"resolutionDeadline","type":"uint256","internalType":"uint256"},{"name":"rewardToken","type":"address","internalType":"address"},{"name":"rewardAmount","type":"uint256","internalType":"uint256"},{"name":"providerStake","type":"uint256","internalType":"uint256"},{"name":"inputsCommitment","type":"bytes32","internalType":"bytes32"},{"name":"verifierDetails","type":"bytes","internalType":"bytes"}],"stateMutability":"view"},{"type":"function","name":"bid","inputs":[{"name":"request","type":"tuple","internalType":"struct ProofRequest","components":[{"name":"signer","type":"address","internalType":"address"},{"name":"market","type":"address","internalType":"address"},{"name":"nonce","type":"uint256","internalType":"uint256"},{"name":"rewardToken","type":"address","internalType":"address"},{"name":"maxRewardAmount","type":"uint256","internalType":"uint256"},{"name":"minRewardAmount","type":"uint256","internalType":"uint256"},{"name":"minimumStake","type":"uint128","internalType":"uint128"},{"name":"startAuctionTimestamp","type":"uint64","internalType":"uint64"},{"name":"endAuctionTimestamp","type":"uint64","internalType":"uint64"},{"name":"provingTime","type":"uint32","internalType":"uint32"},{"name":"inputsCommitment","type":"bytes32","internalType":"bytes32"},{"name":"extraData","type":"bytes","internalType":"bytes"}]},{"name":"signature","type":"bytes","internalType":"bytes"}],"outputs":[{"name":"","type":"address","internalType":"address"},{"name":"","type":"uint256","internalType":"uint256"},{"name":"","type":"uint256","internalType":"uint256"}],"stateMutability":"payable"},{"type":"function","name":"computePermitDigest","inputs":[{"name":"permit","type":"tuple","internalType":"struct ISignatureTransfer.PermitTransferFrom","components":[{"name":"permitted","type":"tuple","internalType":"struct ISignatureTransfer.TokenPermissions","components":[{"name":"token","type":"address","internalType":"address"},{"name":"amount","type":"uint256","internalType":"uint256"}]},{"name":"nonce","type":"uint256","internalType":"uint256"},{"name":"deadline","type":"uint256","internalType":"uint256"}]},{"name":"witness","type":"bytes32","internalType":"bytes32"}],"outputs":[{"name":"","type":"bytes32","internalType":"bytes32"}],"stateMutability":"view"},{"type":"function","name":"computeRequestId","inputs":[{"name":"request","type":"tuple","internalType":"struct ProofRequest","components":[{"name":"signer","type":"address","internalType":"address"},{"name":"market","type":"address","internalType":"address"},{"name":"nonce","type":"uint256","internalType":"uint256"},{"name":"rewardToken","type":"address","internalType":"address"},{"name":"maxRewardAmount","type":"uint256","internalType":"uint256"},{"name":"minRewardAmount","type":"uint256","internalType":"uint256"},{"name":"minimumStake","type":"uint128","internalType":"uint128"},{"name":"startAuctionTimestamp","type":"uint64","internalType":"uint64"},{"name":"endAuctionTimestamp","type":"uint64","internalType":"uint64"},{"name":"provingTime","type":"uint32","internalType":"uint32"},{"name":"inputsCommitment","type":"bytes32","internalType":"bytes32"},{"name":"extraData","type":"bytes","internalType":"bytes"}]},{"name":"signature","type":"bytes","internalType":"bytes"}],"outputs":[{"name":"","type":"bytes32","internalType":"bytes32"}],"stateMutability":"pure"},{"type":"function","name":"computeWitnessHash","inputs":[{"name":"proofRequestWitness","type":"tuple","internalType":"struct ProofRequest","components":[{"name":"signer","type":"address","internalType":"address"},{"name":"market","type":"address","internalType":"address"},{"name":"nonce","type":"uint256","internalType":"uint256"},{"name":"rewardToken","type":"address","internalType":"address"},{"name":"maxRewardAmount","type":"uint256","internalType":"uint256"},{"name":"minRewardAmount","type":"uint256","internalType":"uint256"},{"name":"minimumStake","type":"uint128","internalType":"uint128"},{"name":"startAuctionTimestamp","type":"uint64","internalType":"uint64"},{"name":"endAuctionTimestamp","type":"uint64","internalType":"uint64"},{"name":"provingTime","type":"uint32","internalType":"uint32"},{"name":"inputsCommitment","type":"bytes32","internalType":"bytes32"},{"name":"extraData","type":"bytes","internalType":"bytes"}]}],"outputs":[{"name":"","type":"bytes32","internalType":"bytes32"}],"stateMutability":"pure"},{"type":"function","name":"resolve","inputs":[{"name":"requestId","type":"bytes32","internalType":"bytes32"},{"name":"opaqueSubmission","type":"bytes","internalType":"bytes"},{"name":"submittedPartialCommitment","type":"bytes32","internalType":"bytes32"}],"outputs":[{"name":"providerResolved","type":"bool","internalType":"bool"}],"stateMutability":"nonpayable"},{"type":"event","name":"Bid","inputs":[{"name":"signer","type":"address","indexed":true,"internalType":"address"},{"name":"requestId","type":"bytes32","indexed":true,"internalType":"bytes32"},{"name":"rewardToken","type":"address","indexed":false,"internalType":"address"},{"name":"rewardAmount","type":"uint256","indexed":false,"internalType":"uint256"},{"name":"ethStake","type":"uint256","indexed":false,"internalType":"uint256"},{"name":"provider","type":"address","indexed":false,"internalType":"address"}],"anonymous":false},{"type":"event","name":"Resolve","inputs":[{"name":"signer","type":"address","indexed":true,"internalType":"address"},{"name":"requestId","type":"bytes32","indexed":true,"internalType":"bytes32"},{"name":"resolver","type":"address","indexed":false,"internalType":"address"}],"anonymous":false},{"type":"error","name":"AuctionEnded","inputs":[]},{"type":"error","name":"InvalidExpectedPartialCommitmentResultField","inputs":[]},{"type":"error","name":"InvalidInputsCommitmentField","inputs":[]},{"type":"error","name":"InvalidRequest","inputs":[]},{"type":"error","name":"InvalidResolver","inputs":[]},{"type":"error","name":"InvalidTimestamp","inputs":[]}],"bytecode":{"object":"0x60a060405234801561000f575f80fd5b506040516121ae3803806121ae83398101604081905261002e9161003f565b6001600160a01b031660805261006c565b5f6020828403121561004f575f80fd5b81516001600160a01b0381168114610065575f80fd5b9392505050565b60805161211c6100925f395f8181610213015281816105140152610b3a015261211c5ff3fe6080604052600436106100b0575f3560e01c806368b3567e1161006d57806368b3567e1461019c578063696c11e5146101cf5780636afdd8501461020257806388e867271461024d5780638bd91092146102855780639be138e1146102a4578063e59dbd85146102b8575f80fd5b806308c7deef146100b457806329b1dc04146100e657806345be5017146101195780634a8b09a21461013a5780634b4ce59d14610159578063622306d214610188575b5f80fd5b3480156100bf575f80fd5b506100d36100ce3660046116ff565b6102cc565b6040519081526020015b60405180910390f35b3480156100f1575f80fd5b506100d37f939c21a48a8dbe3a9a2404a1d46691e4d39f6583d6ec6b35714604c986d8010681565b348015610124575f80fd5b5061012d6103f4565b6040516100dd919061177d565b348015610145575f80fd5b506100d361015436600461178f565b610413565b348015610164575f80fd5b50610178610173366004611871565b6105de565b60405190151581526020016100dd565b348015610193575f80fd5b5061012d610866565b3480156101a7575f80fd5b506101bb6101b63660046118bf565b610882565b6040516100dd9897969594939291906118d6565b3480156101da575f80fd5b506100d37f618358ac3db8dc274f0cd8829da7e234bd48cd73c4a740aede1adec9846d06a181565b34801561020d575f80fd5b506102357f000000000000000000000000000000000000000000000000000000000000000081565b6040516001600160a01b0390911681526020016100dd565b61026061025b366004611930565b61095c565b604080516001600160a01b0390941684526020840192909252908201526060016100dd565b348015610290575f80fd5b506100d361029f366004611930565b610e0e565b3480156102af575f80fd5b5061012d610fba565b3480156102c3575f80fd5b506100d3610fd9565b5f6040518061014001604052806101068152602001611fe1610106913980519060200120825f015183602001518460400151856060015186608001518760a001518860c001518960e001518a61010001518b61012001518c61014001518d6101600151805190602001206040516020016103d79d9c9b9a999897969594939291909c8d526001600160a01b039b8c1660208e0152998b1660408d015260608c01989098529590981660808a015260a089019390935260c08801919091526001600160801b031660e08701526001600160401b039081166101008701529390931661012085015263ffffffff929092166101408401526101608301919091526101808201526101a00190565b604051602081830303815290604052805190602001209050919050565b6040518061014001604052806101068152602001611fe1610106913981565b5f806040518060a0016040528060648152602001611f7d606491396040518061018001604052806101498152602001611e34610149913960405160200161045b92919061199b565b6040516020818303038152906040528051906020012090505f7f618358ac3db8dc274f0cd8829da7e234bd48cd73c4a740aede1adec9846d06a1855f01516040516020016104aa9291906119e1565b60408051601f1981840301815282825280516020918201208882015189840151928501879052928401819052306060850152608084019290925260a083015260c0820186905291505f9060e0016040516020818303038152906040528051906020012090506105d27f00000000000000000000000000000000000000000000000000000000000000006001600160a01b0316633644e5156040518163ffffffff1660e01b8152600401602060405180830381865afa15801561056e573d5f803e3d5ffd5b505050506040513d601f19601f8201168201806040525081019061059291906119f5565b8260405161190160f01b602082015260228101839052604281018290525f9060620160405160208183030381529060405280519060200120905092915050565b93505050505b92915050565b5f8481526020818152604080832081516101008101835281546001600160a01b03908116825260018301548116948201949094526002820154928101929092526003810154909216606082015260048201546080820152600582015460a0820152600682015460c082015260078201805484939160e084019161066090611a0c565b80601f016020809104026020016040519081016040528092919081815260200182805461068c90611a0c565b80156106d75780601f106106ae576101008083540402835291602001916106d7565b820191905f5260205f20905b8154815290600101906020018083116106ba57829003601f168201915b50505050508152505090505f81606001519050816040015142116107d15781602001516001600160a01b0316336001600160a01b03161461072b57604051631b68fd9560e21b815260040160405180910390fd5b6107408260c001518360e00151888888610fff565b9250821561079957602082015160a08301516040516001600160a01b0383169180156108fc02915f818181858888f19350505050158015610783573d5f803e3d5ffd5b5061079382828560800151611360565b5061081b565b815160a08301516040516001600160a01b0383169180156108fc02915f818181858888f19350505050158015610783573d5f803e3d5ffd5b815160a08301516040516001600160a01b0383169180156108fc02915f818181858888f19350505050158015610809573d5f803e3d5ffd5b5061081982828560800151611360565b505b815160405133815288916001600160a01b0316907fe1b9bf84d212627d6f3fc7eec912502723467c985c4d055111dea4d0ca702c729060200160405180910390a35050949350505050565b6040518060a0016040528060648152602001611f7d6064913981565b5f60208190529081526040902080546001820154600283015460038401546004850154600586015460068701546007880180546001600160a01b039889169997891698969796909516959394929391926108db90611a0c565b80601f016020809104026020016040519081016040528092919081815260200182805461090790611a0c565b80156109525780601f1061092957610100808354040283529160200191610952565b820191905f5260205f20905b81548152906001019060200180831161093557829003601f168201915b5050505050905088565b5f8080610970610100870160e08801611a44565b6001600160401b0316421015610999576040516341abc80160e01b815260040160405180910390fd5b6109ab61012087016101008801611a44565b6001600160401b03164211156109d4576040516341abc80160e01b815260040160405180910390fd5b6109e460e0870160c08801611a5d565b6001600160801b0316341015610a0d576040516341abc80160e01b815260040160405180910390fd5b5f610a19878787610e0e565b5f818152602081905260409020549091506001600160a01b031615610a515760405163283a4a6160e21b815260040160405180910390fd5b5f604051806060016040528060405180604001604052808b6060016020810190610a7b9190611a76565b6001600160a01b031681526020018b6080013581525081526020018960400135815260200189610100016020810190610ab49190611a44565b6001600160401b0316905290505f610ace6100ce8a611a91565b90505f610b18610ae56101008c0160e08d01611a44565b6001600160401b0316610b006101208d016101008e01611a44565b6001600160401b03168c60a001358d608001356113aa565b6040805180820190915230815260208082018390529192506001600160a01b037f0000000000000000000000000000000000000000000000000000000000000000169163137c29fe918691610b6f908f018f611a76565b866040518061018001604052806101498152602001611e3461014991398f8f6040518863ffffffff1660e01b8152600401610bb09796959493929190611ac4565b5f604051808303815f87803b158015610bc7575f80fd5b505af1158015610bd9573d5f803e3d5ffd5b505f9250610bf29150506101408c016101208d01611b42565b610c029063ffffffff1642611b6f565b60408051610100810190915290915080610c1f60208e018e611a76565b6001600160a01b03168152602001336001600160a01b031681526020018281526020018c6060016020810190610c559190611a76565b6001600160a01b03168152602081018490523460408201526101408d01356060820152608001610c896101608e018e611b82565b8080601f0160208091040260200160405190810160405280939291908181526020018383808284375f9201829052509390945250508781526020818152604091829020845181546001600160a01b03199081166001600160a01b03928316178355928601516001830180548516918316919091179055928501516002820155606085015160038201805490931693169290921790556080830151600482015560a0830151600582015560c0830151600682015560e08301519091506007820190610d539082611c10565b50869150610d66905060208d018d611a76565b6001600160a01b03167f4a4aa710ae4b99cc28fabea4c4506f5162177250adf2ca0d535d6d77a929c8868d6060016020810190610da39190611a76565b858f60c0016020810190610db79190611a5d565b604080516001600160a01b03909416845260208401929092526001600160801b03169082015233606082015260800160405180910390a3610dfe60808c0160608d01611a76565b9b919a5098509650505050505050565b5f610e1c6020850185611a76565b610e2c6040860160208701611a76565b6040860135610e416080880160608901611a76565b608088013560a0890135610e5b60e08b0160c08c01611a5d565b610e6c6101008c0160e08d01611a44565b610e7e6101208d016101008e01611a44565b610e906101408e016101208f01611b42565b8d61014001358e806101600190610ea79190611b82565b604051602001610eb8929190611ccf565b604051602081830303815290604052805190602001208e8e604051602001610ee1929190611ccf565b60405160208183030381529060405280519060200120604051602001610f9a9d9c9b9a999897969594939291906001600160a01b039d8e1681529b8d1660208d015260408c019a909a5297909a1660608a0152608089019590955260a08801939093526001600160801b039190911660c08701526001600160401b0390811660e08701521661010085015263ffffffff166101208401526101408301939093526101608201929092526101808101919091526101a00190565b6040516020818303038152906040528051906020012090505b9392505050565b6040518061018001604052806101498152602001611e34610149913981565b6040518061014001604052806101068152602001611fe161010691398051906020012081565b5f80858060200190518101906110159190611d13565b608081015190915015611340578060a00151156112295760e081015160c0820151859161104191611b6f565b11156110605760405163500ce2ad60e01b815260040160405180910390fd5b60c081015160e08201515f918791879061107a9083611b6f565b9261108793929190611da8565b8080601f0160208091040260200160405190810160405280939291908181526020018383808284375f920191909152505050604084015191925050156111c1576002826101000151856040516020016110ea929190918252602082015260400190565b60408051601f198184030181529082905261110491611dcf565b602060405180830381855afa15801561111f573d5f803e3d5ffd5b5050506040513d601f19601f8201168201806040525081019061114291906119f5565b6002826040516020016111559190611dcf565b60408051601f198184030181529082905261116f91611dcf565b602060405180830381855afa15801561118a573d5f803e3d5ffd5b5050506040513d601f19601f820116820180604052508101906111ad91906119f5565b146111bc575f92505050611357565b611227565b610100820151604080516020810192909252810185905260600160405160208183030381529060405280519060200120816040516020016112029190611dcf565b6040516020818303038152906040528051906020012014611227575f92505050611357565b505b60808101516060820151859161123e91611b6f565b111561125d5760405163ad40bfe560e01b815260040160405180910390fd5b606081015160808201515f91879187906112779083611b6f565b9261128493929190611da8565b8080601f0160208091040260200160405190810160405280939291908181526020018383808284375f92019190915250505060408401519192505015611327576002816040516112d49190611dcf565b602060405180830381855afa1580156112ef573d5f803e3d5ffd5b5050506040513d601f19601f8201168201806040525081019061131291906119f5565b8814611322575f92505050611357565b61133e565b80516020820120881461133e575f92505050611357565b505b611353815f015182602001518787611477565b9150505b95945050505050565b816014528060345263a9059cbb60601b5f5260205f604460105f875af18060015f5114166113a057803d853b1517106113a0576390b8ec185f526004601cfd5b505f603452505050565b5f8385106113cb5760405163b7d0949760e01b815260040160405180910390fd5b844210156113ec5760405163b7d0949760e01b815260040160405180910390fd5b8342106113fa57508061146f565b5f6114058642611dea565b90505f6114128787611dea565b90505f8161142884670de0b6b3a7640000611dfd565b6114329190611e14565b90505f670de0b6b3a76400006114488888611dea565b6114529084611dfd565b61145c9190611e14565b90506114688188611b6f565b9450505050505b949350505050565b5f80604051858152838560048301376020600485018201818160048801855f8d5af19998505050505050505050565b634e487b7160e01b5f52604160045260245ffd5b60405161018081016001600160401b03811182821017156114dd576114dd6114a6565b60405290565b604080519081016001600160401b03811182821017156114dd576114dd6114a6565b60405161012081016001600160401b03811182821017156114dd576114dd6114a6565b6001600160a01b038116811461153c575f80fd5b50565b803561154a81611528565b919050565b80356001600160801b038116811461154a575f80fd5b80356001600160401b038116811461154a575f80fd5b803563ffffffff8116811461154a575f80fd5b5f82601f83011261159d575f80fd5b81356001600160401b03808211156115b7576115b76114a6565b604051601f8301601f19908116603f011681019082821181831017156115df576115df6114a6565b816040528381528660208588010111156115f7575f80fd5b836020870160208301375f602085830101528094505050505092915050565b5f6101808284031215611627575f80fd5b61162f6114ba565b905061163a8261153f565b81526116486020830161153f565b6020820152604082013560408201526116636060830161153f565b60608201526080820135608082015260a082013560a082015261168860c0830161154f565b60c082015261169960e08301611565565b60e08201526101006116ac818401611565565b908201526101206116be83820161157b565b908201526101408281013590820152610160808301356001600160401b038111156116e7575f80fd5b6116f38582860161158e565b82840152505092915050565b5f6020828403121561170f575f80fd5b81356001600160401b03811115611724575f80fd5b61146f84828501611616565b5f5b8381101561174a578181015183820152602001611732565b50505f910152565b5f8151808452611769816020860160208601611730565b601f01601f19169290920160200192915050565b602081525f610fb36020830184611752565b5f8082840360a08112156117a1575f80fd5b60808112156117ae575f80fd5b604051606081018181106001600160401b03821117156117d0576117d06114a6565b60409081528212156117e0575f80fd5b6117e86114e3565b915084356117f581611528565b808352506020850135602083015281815260408501356020820152606085013560408201528093505050608083013590509250929050565b5f8083601f84011261183d575f80fd5b5081356001600160401b03811115611853575f80fd5b60208301915083602082850101111561186a575f80fd5b9250929050565b5f805f8060608587031215611884575f80fd5b8435935060208501356001600160401b038111156118a0575f80fd5b6118ac8782880161182d565b9598909750949560400135949350505050565b5f602082840312156118cf575f80fd5b5035919050565b5f61010060018060a01b03808c168452808b1660208501528960408501528089166060850152508660808401528560a08401528460c08401528060e084015261192181840185611752565b9b9a5050505050505050505050565b5f805f60408486031215611942575f80fd5b83356001600160401b0380821115611958575f80fd5b90850190610180828803121561196c575f80fd5b90935060208501359080821115611981575f80fd5b5061198e8682870161182d565b9497909650939450505050565b5f83516119ac818460208801611730565b8351908301906119c0818360208801611730565b01949350505050565b80516001600160a01b03168252602090810151910152565b82815260608101610fb360208301846119c9565b5f60208284031215611a05575f80fd5b5051919050565b600181811c90821680611a2057607f821691505b602082108103611a3e57634e487b7160e01b5f52602260045260245ffd5b50919050565b5f60208284031215611a54575f80fd5b610fb382611565565b5f60208284031215611a6d575f80fd5b610fb38261154f565b5f60208284031215611a86575f80fd5b8135610fb381611528565b5f6105d83683611616565b81835281816020850137505f828201602090810191909152601f909101601f19169091010190565b5f610140611ad3838b516119c9565b60208a0151604084015260408a01516060840152611af4608084018a6119c9565b6001600160a01b03881660c084015260e083018790526101008301819052611b1e81840187611752565b9050828103610120840152611b34818587611a9c565b9a9950505050505050505050565b5f60208284031215611b52575f80fd5b610fb38261157b565b634e487b7160e01b5f52601160045260245ffd5b808201808211156105d8576105d8611b5b565b5f808335601e19843603018112611b97575f80fd5b8301803591506001600160401b03821115611bb0575f80fd5b60200191503681900382131561186a575f80fd5b601f821115611c0b57805f5260205f20601f840160051c81016020851015611be95750805b601f840160051c820191505b81811015611c08575f8155600101611bf5565b50505b505050565b81516001600160401b03811115611c2957611c296114a6565b611c3d81611c378454611a0c565b84611bc4565b602080601f831160018114611c70575f8415611c595750858301515b5f19600386901b1c1916600185901b178555611cc7565b5f85815260208120601f198616915b82811015611c9e57888601518255948401946001909101908401611c7f565b5085821015611cbb57878501515f19600388901b60f8161c191681555b505060018460011b0185555b505050505050565b602081525f61146f602083018486611a9c565b805161154a81611528565b80516001600160e01b03198116811461154a575f80fd5b8051801515811461154a575f80fd5b5f6101208284031215611d24575f80fd5b611d2c611505565b611d3583611ce2565b8152611d4360208401611ced565b6020820152611d5460408401611d04565b60408201526060830151606082015260808301516080820152611d7960a08401611d04565b60a082015260c083015160c082015260e083015160e08201526101008084015181830152508091505092915050565b5f8085851115611db6575f80fd5b83861115611dc2575f80fd5b5050820193919092039150565b5f8251611de0818460208701611730565b9190910192915050565b818103818111156105d8576105d8611b5b565b80820281158282048414176105d8576105d8611b5b565b5f82611e2e57634e487b7160e01b5f52601260045260245ffd5b50049056fe50726f6f6652657175657374207769746e65737329546f6b656e5065726d697373696f6e73286164647265737320746f6b656e2c75696e7432353620616d6f756e742950726f6f66526571756573742861646472657373207369676e65722c61646472657373206d61726b65742c75696e74323536206e6f6e63652c6164647265737320726577617264546f6b656e2c75696e74323536206d6178526577617264416d6f756e742c75696e74323536206d696e526577617264416d6f756e742c75696e74313238206d696e696d756d5374616b652c75696e74363420737461727441756374696f6e54696d657374616d702c75696e74363420656e6441756374696f6e54696d657374616d702c75696e7433322070726f76696e6754696d652c6279746573333220696e70757473436f6d6d69746d656e742c627974657320657874726144617461295065726d69745769746e6573735472616e7366657246726f6d28546f6b656e5065726d697373696f6e73207065726d69747465642c61646472657373207370656e6465722c75696e74323536206e6f6e63652c75696e7432353620646561646c696e652c50726f6f66526571756573742861646472657373207369676e65722c61646472657373206d61726b65742c75696e74323536206e6f6e63652c6164647265737320726577617264546f6b656e2c75696e74323536206d6178526577617264416d6f756e742c75696e74323536206d696e526577617264416d6f756e742c75696e74313238206d696e696d756d5374616b652c75696e74363420737461727441756374696f6e54696d657374616d702c75696e74363420656e6441756374696f6e54696d657374616d702c75696e7433322070726f76696e6754696d652c6279746573333220696e70757473436f6d6d69746d656e742c62797465732065787472614461746129a26469706673582212202fa6b2d432611fce7408742f123336e43b16151f669606c09b19a7591b9b242f64736f6c63430008170033","linkReferences":{}},"methodIdentifiers":{"FULL_PROOF_REQUEST_WITNESS_TYPE_STRING_STUB()":"9be138e1","PERMIT2()":"6afdd850","PERMIT_TRANSFER_FROM_TYPEHASH()":"29b1dc04","PERMIT_TRANSFER_FROM_WITNESS_TYPEHASH_STUB()":"622306d2","PROOF_REQUEST_WITNESS_TYPE()":"45be5017","PROOF_REQUEST_WITNESS_TYPE_HASH()":"e59dbd85","TOKEN_PERMISSIONS_TYPEHASH()":"696c11e5","activeProofRequestData(bytes32)":"68b3567e","bid((address,address,uint256,address,uint256,uint256,uint128,uint64,uint64,uint32,bytes32,bytes),bytes)":"88e86727","computePermitDigest(((address,uint256),uint256,uint256),bytes32)":"4a8b09a2","computeRequestId((address,address,uint256,address,uint256,uint256,uint128,uint64,uint64,uint32,bytes32,bytes),bytes)":"8bd91092","computeWitnessHash((address,address,uint256,address,uint256,uint256,uint128,uint64,uint64,uint32,bytes32,bytes))":"08c7deef","resolve(bytes32,bytes,bytes32)":"4b4ce59d"},"id":43}